{
  "_format": "hh-sol-artifact-1",
  "contractName": "CertificateContract",
  "sourceName": "contracts/certificate.sol",
  "abi": [
    {
      "inputs": [],
      "stateMutability": "nonpayable",
      "type": "constructor"
    },
    {
      "anonymous": false,
      "inputs": [
        {
          "indexed": false,
          "internalType": "string",
          "name": "certificateHash",
          "type": "string"
        },
        {
          "indexed": true,
          "internalType": "address",
          "name": "issuedBy",
          "type": "address"
        },
        {
          "indexed": true,
          "internalType": "address",
          "name": "issuedTo",
          "type": "address"
        }
      ],
      "name": "CertificateIssued",
      "type": "event"
    },
    {
      "anonymous": false,
      "inputs": [
        {
          "indexed": false,
          "internalType": "string",
          "name": "name",
          "type": "string"
        },
        {
          "indexed": false,
          "internalType": "string",
          "name": "email",
          "type": "string"
        },
        {
          "indexed": true,
          "internalType": "address",
          "name": "organizationAddress",
          "type": "address"
        }
      ],
      "name": "OrganizationCreated",
      "type": "event"
    },
    {
      "inputs": [
        {
          "internalType": "address",
          "name": "_student",
          "type": "address"
        },
        {
          "internalType": "uint256",
          "name": "_programId",
          "type": "uint256"
        }
      ],
      "name": "addStudentToProgram",
      "outputs": [],
      "stateMutability": "nonpayable",
      "type": "function"
    },
    {
      "inputs": [
        {
          "internalType": "address",
          "name": "",
          "type": "address"
        },
        {
          "internalType": "uint256",
          "name": "",
          "type": "uint256"
        }
      ],
      "name": "certificatesByStudent",
      "outputs": [
        {
          "internalType": "string",
          "name": "certificateHash",
          "type": "string"
        },
        {
          "internalType": "address",
          "name": "issuedBy",
          "type": "address"
        },
        {
          "internalType": "address",
          "name": "issuedTo",
          "type": "address"
        }
      ],
      "stateMutability": "view",
      "type": "function"
    },
    {
      "inputs": [
        {
          "internalType": "string",
          "name": "_name",
          "type": "string"
        },
        {
          "internalType": "string",
          "name": "_email",
          "type": "string"
        }
      ],
      "name": "createOrganization",
      "outputs": [],
      "stateMutability": "nonpayable",
      "type": "function"
    },
    {
      "inputs": [
        {
          "internalType": "string",
          "name": "_name",
          "type": "string"
        }
      ],
      "name": "createProgram",
      "outputs": [],
      "stateMutability": "nonpayable",
      "type": "function"
    },
    {
      "inputs": [
        {
          "internalType": "address",
          "name": "_student",
          "type": "address"
        }
      ],
      "name": "getCertificateCount",
      "outputs": [
        {
          "internalType": "uint256",
          "name": "",
          "type": "uint256"
        }
      ],
      "stateMutability": "view",
      "type": "function"
    },
    {
      "inputs": [],
      "name": "getMyCertificates",
      "outputs": [
        {
          "components": [
            {
              "internalType": "string",
              "name": "certificateHash",
              "type": "string"
            },
            {
              "internalType": "address",
              "name": "issuedBy",
              "type": "address"
            },
            {
              "internalType": "address",
              "name": "issuedTo",
              "type": "address"
            }
          ],
          "internalType": "struct CertificateContract.Certificate[]",
          "name": "",
          "type": "tuple[]"
        }
      ],
      "stateMutability": "view",
      "type": "function"
    },
    {
      "inputs": [],
      "name": "getMyPrograms",
      "outputs": [
        {
          "components": [
            {
              "internalType": "string",
              "name": "name",
              "type": "string"
            }
          ],
          "internalType": "struct CertificateContract.Program[]",
          "name": "",
          "type": "tuple[]"
        }
      ],
      "stateMutability": "view",
      "type": "function"
    },
    {
      "inputs": [
        {
          "internalType": "address",
          "name": "_organization",
          "type": "address"
        }
      ],
      "name": "getProgramCount",
      "outputs": [
        {
          "internalType": "uint256",
          "name": "",
          "type": "uint256"
        }
      ],
      "stateMutability": "view",
      "type": "function"
    },
    {
      "inputs": [
        {
          "internalType": "uint256",
          "name": "_programId",
          "type": "uint256"
        }
      ],
      "name": "getStudentCount",
      "outputs": [
        {
          "internalType": "uint256",
          "name": "",
          "type": "uint256"
        }
      ],
      "stateMutability": "view",
      "type": "function"
    },
    {
      "inputs": [
        {
          "internalType": "uint256",
          "name": "_programId",
          "type": "uint256"
        }
      ],
      "name": "getStudentsInProgram",
      "outputs": [
        {
          "components": [
            {
              "internalType": "string",
              "name": "name",
              "type": "string"
            }
          ],
          "internalType": "struct CertificateContract.Student[]",
          "name": "",
          "type": "tuple[]"
        }
      ],
      "stateMutability": "view",
      "type": "function"
    },
    {
      "inputs": [
        {
          "internalType": "string",
          "name": "_certificateHash",
          "type": "string"
        },
        {
          "internalType": "address",
          "name": "_issuedTo",
          "type": "address"
        }
      ],
      "name": "issueCertificate",
      "outputs": [],
      "stateMutability": "nonpayable",
      "type": "function"
    },
    {
      "inputs": [],
      "name": "organizationCount",
      "outputs": [
        {
          "internalType": "uint256",
          "name": "",
          "type": "uint256"
        }
      ],
      "stateMutability": "view",
      "type": "function"
    },
    {
      "inputs": [
        {
          "internalType": "address",
          "name": "",
          "type": "address"
        }
      ],
      "name": "organizations",
      "outputs": [
        {
          "internalType": "string",
          "name": "name",
          "type": "string"
        },
        {
          "internalType": "string",
          "name": "email",
          "type": "string"
        }
      ],
      "stateMutability": "view",
      "type": "function"
    },
    {
      "inputs": [],
      "name": "owner",
      "outputs": [
        {
          "internalType": "address",
          "name": "",
          "type": "address"
        }
      ],
      "stateMutability": "view",
      "type": "function"
    },
    {
      "inputs": [],
      "name": "programCount",
      "outputs": [
        {
          "internalType": "uint256",
          "name": "",
          "type": "uint256"
        }
      ],
      "stateMutability": "view",
      "type": "function"
    },
    {
      "inputs": [
        {
          "internalType": "uint256",
          "name": "",
          "type": "uint256"
        }
      ],
      "name": "programs",
      "outputs": [
        {
          "internalType": "string",
          "name": "name",
          "type": "string"
        }
      ],
      "stateMutability": "view",
      "type": "function"
    },
    {
      "inputs": [
        {
          "internalType": "address",
          "name": "",
          "type": "address"
        },
        {
          "internalType": "uint256",
          "name": "",
          "type": "uint256"
        }
      ],
      "name": "programsByOrganization",
      "outputs": [
        {
          "internalType": "string",
          "name": "name",
          "type": "string"
        }
      ],
      "stateMutability": "view",
      "type": "function"
    },
    {
      "inputs": [
        {
          "internalType": "address",
          "name": "",
          "type": "address"
        }
      ],
      "name": "students",
      "outputs": [
        {
          "internalType": "string",
          "name": "name",
          "type": "string"
        }
      ],
      "stateMutability": "view",
      "type": "function"
    },
    {
      "inputs": [
        {
          "internalType": "uint256",
          "name": "",
          "type": "uint256"
        },
        {
          "internalType": "uint256",
          "name": "",
          "type": "uint256"
        }
      ],
      "name": "studentsByProgram",
      "outputs": [
        {
          "internalType": "string",
          "name": "name",
          "type": "string"
        }
      ],
      "stateMutability": "view",
      "type": "function"
    },
    {
      "inputs": [
        {
          "internalType": "string",
          "name": "_certificateHash",
          "type": "string"
        },
        {
          "internalType": "address",
          "name": "_issuedBy",
          "type": "address"
        },
        {
          "internalType": "address",
          "name": "_issuedTo",
          "type": "address"
        }
      ],
      "name": "verifyCertificate",
      "outputs": [
        {
          "internalType": "bool",
          "name": "",
          "type": "bool"
        }
      ],
      "stateMutability": "view",
      "type": "function"
    }
  ],
  "bytecode": "0x60806040526000600155600060025534801561001a57600080fd5b50336000806101000a81548173ffffffffffffffffffffffffffffffffffffffff021916908373ffffffffffffffffffffffffffffffffffffffff1602179055506127778061006a6000396000f3fe608060405234801561001057600080fd5b506004361061012c5760003560e01c80639f796634116100ad578063b1d5ccf811610071578063b1d5ccf814610380578063b63c82fd146103b0578063c80b10aa146103e0578063f1c6210414610410578063ffc8fa7a1461042e5761012c565b80639f796634146102b65780639ff698af146102d4578063a411ef2014610304578063a6c807a914610320578063b0ed60db146103505761012c565b80637c573169116100f45780637c573169146101fe5780637f9a0b9e1461021c5780638afaa0c41461024c5780638da5cb5b1461026857806392db2816146102865761012c565b8063314901f4146101315780635a1f74061461014f5780635aa0bac6146101805780635ab6f738146101b257806367d4ddf6146101e2575b600080fd5b61013961044a565b6040516101469190611aa9565b60405180910390f35b61016960048036038101906101649190611b3d565b610574565b604051610177929190611bb4565b60405180910390f35b61019a60048036038101906101959190611c21565b6106a8565b6040516101a993929190611c70565b60405180910390f35b6101cc60048036038101906101c79190611cae565b6107b7565b6040516101d99190611dc7565b60405180910390f35b6101fc60048036038101906101f79190611f1e565b6108b7565b005b610206610b06565b604051610213919061209b565b60405180910390f35b61023660048036038101906102319190611c21565b610ce0565b60405161024391906120bd565b60405180910390f35b610266600480360381019061026191906120df565b610d9f565b005b610270610f17565b60405161027d9190612128565b60405180910390f35b6102a0600480360381019061029b9190611cae565b610f3b565b6040516102ad91906120bd565b60405180910390f35b6102be610fe1565b6040516102cb9190612152565b60405180910390f35b6102ee60048036038101906102e9919061216d565b610fe7565b6040516102fb91906120bd565b60405180910390f35b61031e600480360381019061031991906121ad565b6110a6565b005b61033a60048036038101906103359190611b3d565b611198565b60405161034791906120bd565b60405180910390f35b61036a60048036038101906103659190612225565b61123e565b60405161037791906122af565b60405180910390f35b61039a60048036038101906103959190611b3d565b61156a565b6040516103a79190612152565b60405180910390f35b6103ca60048036038101906103c59190611cae565b6115b6565b6040516103d79190612152565b60405180910390f35b6103fa60048036038101906103f59190611b3d565b6115d6565b6040516104079190612152565b60405180910390f35b610418611622565b6040516104259190612152565b60405180910390f35b61044860048036038101906104439190611c21565b611628565b005b6060600760003373ffffffffffffffffffffffffffffffffffffffff1673ffffffffffffffffffffffffffffffffffffffff168152602001908152602001600020805480602002602001604051908101604052809291908181526020016000905b8282101561056b578382906000526020600020016040518060200160405290816000820180546104da906122f9565b80601f0160208091040260200160405190810160405280929190818152602001828054610506906122f9565b80156105535780601f1061052857610100808354040283529160200191610553565b820191906000526020600020905b81548152906001019060200180831161053657829003601f168201915b505050505081525050815260200190600101906104ab565b50505050905090565b6003602052806000526040600020600091509050806000018054610597906122f9565b80601f01602080910402602001604051908101604052809291908181526020018280546105c3906122f9565b80156106105780601f106105e557610100808354040283529160200191610610565b820191906000526020600020905b8154815290600101906020018083116105f357829003601f168201915b505050505090806001018054610625906122f9565b80601f0160208091040260200160405190810160405280929190818152602001828054610651906122f9565b801561069e5780601f106106735761010080835404028352916020019161069e565b820191906000526020600020905b81548152906001019060200180831161068157829003601f168201915b5050505050905082565b600660205281600052604060002081815481106106c457600080fd5b9060005260206000209060030201600091509150508060000180546106e8906122f9565b80601f0160208091040260200160405190810160405280929190818152602001828054610714906122f9565b80156107615780601f1061073657610100808354040283529160200191610761565b820191906000526020600020905b81548152906001019060200180831161074457829003601f168201915b5050505050908060010160009054906101000a900473ffffffffffffffffffffffffffffffffffffffff16908060020160009054906101000a900473ffffffffffffffffffffffffffffffffffffffff16905083565b606060086000838152602001908152602001600020805480602002602001604051908101604052809291908181526020016000905b828210156108ac5783829060005260206000200160405180602001604052908160008201805461081b906122f9565b80601f0160208091040260200160405190810160405280929190818152602001828054610847906122f9565b80156108945780601f1061086957610100808354040283529160200191610894565b820191906000526020600020905b81548152906001019060200180831161087757829003601f168201915b505050505081525050815260200190600101906107ec565b505050509050919050565b6000600360003373ffffffffffffffffffffffffffffffffffffffff1673ffffffffffffffffffffffffffffffffffffffff1681526020019081526020016000206000018054610906906122f9565b905003610948576040517f08c379a000000000000000000000000000000000000000000000000000000000815260040161093f90612376565b60405180910390fd5b600660008273ffffffffffffffffffffffffffffffffffffffff1673ffffffffffffffffffffffffffffffffffffffff16815260200190815260200160002060405180606001604052808481526020013373ffffffffffffffffffffffffffffffffffffffff1681526020018373ffffffffffffffffffffffffffffffffffffffff1681525090806001815401808255809150506001900390600052602060002090600302016000909190919091506000820151816000019081610a0c9190612542565b5060208201518160010160006101000a81548173ffffffffffffffffffffffffffffffffffffffff021916908373ffffffffffffffffffffffffffffffffffffffff16021790555060408201518160020160006101000a81548173ffffffffffffffffffffffffffffffffffffffff021916908373ffffffffffffffffffffffffffffffffffffffff16021790555050508073ffffffffffffffffffffffffffffffffffffffff163373ffffffffffffffffffffffffffffffffffffffff167fc2c609b4c31b0c752f6a8691bfa92d3bb7db975421b76c586f8d1963a44c28f784604051610afa91906120bd565b60405180910390a35050565b6060600660003373ffffffffffffffffffffffffffffffffffffffff1673ffffffffffffffffffffffffffffffffffffffff168152602001908152602001600020805480602002602001604051908101604052809291908181526020016000905b82821015610cd75783829060005260206000209060030201604051806060016040529081600082018054610b9a906122f9565b80601f0160208091040260200160405190810160405280929190818152602001828054610bc6906122f9565b8015610c135780601f10610be857610100808354040283529160200191610c13565b820191906000526020600020905b815481529060010190602001808311610bf657829003601f168201915b505050505081526020016001820160009054906101000a900473ffffffffffffffffffffffffffffffffffffffff1673ffffffffffffffffffffffffffffffffffffffff1673ffffffffffffffffffffffffffffffffffffffff1681526020016002820160009054906101000a900473ffffffffffffffffffffffffffffffffffffffff1673ffffffffffffffffffffffffffffffffffffffff1673ffffffffffffffffffffffffffffffffffffffff168152505081526020019060010190610b67565b50505050905090565b60076020528160005260406000208181548110610cfc57600080fd5b9060005260206000200160009150915050806000018054610d1c906122f9565b80601f0160208091040260200160405190810160405280929190818152602001828054610d48906122f9565b8015610d955780601f10610d6a57610100808354040283529160200191610d95565b820191906000526020600020905b815481529060010190602001808311610d7857829003601f168201915b5050505050905081565b6000600360003373ffffffffffffffffffffffffffffffffffffffff1673ffffffffffffffffffffffffffffffffffffffff1681526020019081526020016000206000018054610dee906122f9565b905003610e30576040517f08c379a0000000000000000000000000000000000000000000000000000000008152600401610e2790612376565b60405180910390fd5b610e46600160025461191790919063ffffffff16565b6002819055506040518060200160405280828152506005600060025481526020019081526020016000206000820151816000019081610e859190612542565b50905050600760003373ffffffffffffffffffffffffffffffffffffffff1673ffffffffffffffffffffffffffffffffffffffff168152602001908152602001600020604051806020016040528083815250908060018154018082558091505060019003906000526020600020016000909190919091506000820151816000019081610f119190612542565b50505050565b60008054906101000a900473ffffffffffffffffffffffffffffffffffffffff1681565b6005602052806000526040600020600091509050806000018054610f5e906122f9565b80601f0160208091040260200160405190810160405280929190818152602001828054610f8a906122f9565b8015610fd75780601f10610fac57610100808354040283529160200191610fd7565b820191906000526020600020905b815481529060010190602001808311610fba57829003601f168201915b5050505050905081565b60025481565b6008602052816000526040600020818154811061100357600080fd5b9060005260206000200160009150915050806000018054611023906122f9565b80601f016020809104026020016040519081016040528092919081815260200182805461104f906122f9565b801561109c5780601f106110715761010080835404028352916020019161109c565b820191906000526020600020905b81548152906001019060200180831161107f57829003601f168201915b5050505050905081565b6110bb6001805461191790919063ffffffff16565b600181905550604051806040016040528083815260200182815250600360003373ffffffffffffffffffffffffffffffffffffffff1673ffffffffffffffffffffffffffffffffffffffff168152602001908152602001600020600082015181600001908161112a9190612542565b5060208201518160010190816111409190612542565b509050503373ffffffffffffffffffffffffffffffffffffffff167ff43468d632970351cebf716e29ad6e7b78918f4c6824ba9574cf73e6edac7814838360405161118c929190611bb4565b60405180910390a25050565b60046020528060005260406000206000915090508060000180546111bb906122f9565b80601f01602080910402602001604051908101604052809291908181526020018280546111e7906122f9565b80156112345780601f1061120957610100808354040283529160200191611234565b820191906000526020600020905b81548152906001019060200180831161121757829003601f168201915b5050505050905081565b600080600660008473ffffffffffffffffffffffffffffffffffffffff1673ffffffffffffffffffffffffffffffffffffffff168152602001908152602001600020805480602002602001604051908101604052809291908181526020016000905b8282101561141057838290600052602060002090600302016040518060600160405290816000820180546112d3906122f9565b80601f01602080910402602001604051908101604052809291908181526020018280546112ff906122f9565b801561134c5780601f106113215761010080835404028352916020019161134c565b820191906000526020600020905b81548152906001019060200180831161132f57829003601f168201915b505050505081526020016001820160009054906101000a900473ffffffffffffffffffffffffffffffffffffffff1673ffffffffffffffffffffffffffffffffffffffff1673ffffffffffffffffffffffffffffffffffffffff1681526020016002820160009054906101000a900473ffffffffffffffffffffffffffffffffffffffff1673ffffffffffffffffffffffffffffffffffffffff1673ffffffffffffffffffffffffffffffffffffffff1681525050815260200190600101906112a0565b50505050905060005b815181101561155c57856040516020016114339190612650565b6040516020818303038152906040528051906020012082828151811061145c5761145b612667565b5b6020026020010151600001516040516020016114789190612650565b604051602081830303815290604052805190602001201480156114e457508473ffffffffffffffffffffffffffffffffffffffff168282815181106114c0576114bf612667565b5b60200260200101516020015173ffffffffffffffffffffffffffffffffffffffff16145b801561153957508373ffffffffffffffffffffffffffffffffffffffff1682828151811061151557611514612667565b5b60200260200101516040015173ffffffffffffffffffffffffffffffffffffffff16145b1561154957600192505050611563565b8080611554906126c5565b915050611419565b5060009150505b9392505050565b6000600660008373ffffffffffffffffffffffffffffffffffffffff1673ffffffffffffffffffffffffffffffffffffffff168152602001908152602001600020805490509050919050565b600060086000838152602001908152602001600020805490509050919050565b6000600760008373ffffffffffffffffffffffffffffffffffffffff1673ffffffffffffffffffffffffffffffffffffffff168152602001908152602001600020805490509050919050565b60015481565b6000600360003373ffffffffffffffffffffffffffffffffffffffff1673ffffffffffffffffffffffffffffffffffffffff1681526020019081526020016000206000018054611677906122f9565b9050036116b9576040517f08c379a00000000000000000000000000000000000000000000000000000000081526004016116b090612376565b60405180910390fd5b6040518060200160405280600460008573ffffffffffffffffffffffffffffffffffffffff1673ffffffffffffffffffffffffffffffffffffffff1681526020019081526020016000206000018054611711906122f9565b80601f016020809104026020016040519081016040528092919081815260200182805461173d906122f9565b801561178a5780601f1061175f5761010080835404028352916020019161178a565b820191906000526020600020905b81548152906001019060200180831161176d57829003601f168201915b5050505050815250600460008473ffffffffffffffffffffffffffffffffffffffff1673ffffffffffffffffffffffffffffffffffffffff16815260200190815260200160002060008201518160000190816117e69190612542565b50905050600860008281526020019081526020016000206040518060200160405280600460008673ffffffffffffffffffffffffffffffffffffffff1673ffffffffffffffffffffffffffffffffffffffff1681526020019081526020016000206000018054611855906122f9565b80601f0160208091040260200160405190810160405280929190818152602001828054611881906122f9565b80156118ce5780601f106118a3576101008083540402835291602001916118ce565b820191906000526020600020905b8154815290600101906020018083116118b157829003601f168201915b50505050508152509080600181540180825580915050600190039060005260206000200160009091909190915060008201518160000190816119109190612542565b5050505050565b60008183611925919061270d565b905092915050565b600081519050919050565b600082825260208201905092915050565b6000819050602082019050919050565b600081519050919050565b600082825260208201905092915050565b60005b83811015611993578082015181840152602081019050611978565b60008484015250505050565b6000601f19601f8301169050919050565b60006119bb82611959565b6119c58185611964565b93506119d5818560208601611975565b6119de8161199f565b840191505092915050565b60006020830160008301518482036000860152611a0682826119b0565b9150508091505092915050565b6000611a1f83836119e9565b905092915050565b6000602082019050919050565b6000611a3f8261192d565b611a498185611938565b935083602082028501611a5b85611949565b8060005b85811015611a975784840389528151611a788582611a13565b9450611a8383611a27565b925060208a01995050600181019050611a5f565b50829750879550505050505092915050565b60006020820190508181036000830152611ac38184611a34565b905092915050565b6000604051905090565b600080fd5b600080fd5b600073ffffffffffffffffffffffffffffffffffffffff82169050919050565b6000611b0a82611adf565b9050919050565b611b1a81611aff565b8114611b2557600080fd5b50565b600081359050611b3781611b11565b92915050565b600060208284031215611b5357611b52611ad5565b5b6000611b6184828501611b28565b91505092915050565b600082825260208201905092915050565b6000611b8682611959565b611b908185611b6a565b9350611ba0818560208601611975565b611ba98161199f565b840191505092915050565b60006040820190508181036000830152611bce8185611b7b565b90508181036020830152611be28184611b7b565b90509392505050565b6000819050919050565b611bfe81611beb565b8114611c0957600080fd5b50565b600081359050611c1b81611bf5565b92915050565b60008060408385031215611c3857611c37611ad5565b5b6000611c4685828601611b28565b9250506020611c5785828601611c0c565b9150509250929050565b611c6a81611aff565b82525050565b60006060820190508181036000830152611c8a8186611b7b565b9050611c996020830185611c61565b611ca66040830184611c61565b949350505050565b600060208284031215611cc457611cc3611ad5565b5b6000611cd284828501611c0c565b91505092915050565b600081519050919050565b600082825260208201905092915050565b6000819050602082019050919050565b60006020830160008301518482036000860152611d2482826119b0565b9150508091505092915050565b6000611d3d8383611d07565b905092915050565b6000602082019050919050565b6000611d5d82611cdb565b611d678185611ce6565b935083602082028501611d7985611cf7565b8060005b85811015611db55784840389528151611d968582611d31565b9450611da183611d45565b925060208a01995050600181019050611d7d565b50829750879550505050505092915050565b60006020820190508181036000830152611de18184611d52565b905092915050565b600080fd5b600080fd5b7f4e487b7100000000000000000000000000000000000000000000000000000000600052604160045260246000fd5b611e2b8261199f565b810181811067ffffffffffffffff82111715611e4a57611e49611df3565b5b80604052505050565b6000611e5d611acb565b9050611e698282611e22565b919050565b600067ffffffffffffffff821115611e8957611e88611df3565b5b611e928261199f565b9050602081019050919050565b82818337600083830152505050565b6000611ec1611ebc84611e6e565b611e53565b905082815260208101848484011115611edd57611edc611dee565b5b611ee8848285611e9f565b509392505050565b600082601f830112611f0557611f04611de9565b5b8135611f15848260208601611eae565b91505092915050565b60008060408385031215611f3557611f34611ad5565b5b600083013567ffffffffffffffff811115611f5357611f52611ada565b5b611f5f85828601611ef0565b9250506020611f7085828601611b28565b9150509250929050565b600081519050919050565b600082825260208201905092915050565b6000819050602082019050919050565b611faf81611aff565b82525050565b60006060830160008301518482036000860152611fd282826119b0565b9150506020830151611fe76020860182611fa6565b506040830151611ffa6040860182611fa6565b508091505092915050565b60006120118383611fb5565b905092915050565b6000602082019050919050565b600061203182611f7a565b61203b8185611f85565b93508360208202850161204d85611f96565b8060005b85811015612089578484038952815161206a8582612005565b945061207583612019565b925060208a01995050600181019050612051565b50829750879550505050505092915050565b600060208201905081810360008301526120b58184612026565b905092915050565b600060208201905081810360008301526120d78184611b7b565b905092915050565b6000602082840312156120f5576120f4611ad5565b5b600082013567ffffffffffffffff81111561211357612112611ada565b5b61211f84828501611ef0565b91505092915050565b600060208201905061213d6000830184611c61565b92915050565b61214c81611beb565b82525050565b60006020820190506121676000830184612143565b92915050565b6000806040838503121561218457612183611ad5565b5b600061219285828601611c0c565b92505060206121a385828601611c0c565b9150509250929050565b600080604083850312156121c4576121c3611ad5565b5b600083013567ffffffffffffffff8111156121e2576121e1611ada565b5b6121ee85828601611ef0565b925050602083013567ffffffffffffffff81111561220f5761220e611ada565b5b61221b85828601611ef0565b9150509250929050565b60008060006060848603121561223e5761223d611ad5565b5b600084013567ffffffffffffffff81111561225c5761225b611ada565b5b61226886828701611ef0565b935050602061227986828701611b28565b925050604061228a86828701611b28565b9150509250925092565b60008115159050919050565b6122a981612294565b82525050565b60006020820190506122c460008301846122a0565b92915050565b7f4e487b7100000000000000000000000000000000000000000000000000000000600052602260045260246000fd5b6000600282049050600182168061231157607f821691505b602082108103612324576123236122ca565b5b50919050565b7f4e4f545f4f5247414e495a455200000000000000000000000000000000000000600082015250565b6000612360600d83611b6a565b915061236b8261232a565b602082019050919050565b6000602082019050818103600083015261238f81612353565b9050919050565b60008190508160005260206000209050919050565b60006020601f8301049050919050565b600082821b905092915050565b6000600883026123f87fffffffffffffffffffffffffffffffffffffffffffffffffffffffffffffffff826123bb565b61240286836123bb565b95508019841693508086168417925050509392505050565b6000819050919050565b600061243f61243a61243584611beb565b61241a565b611beb565b9050919050565b6000819050919050565b61245983612424565b61246d61246582612446565b8484546123c8565b825550505050565b600090565b612482612475565b61248d818484612450565b505050565b5b818110156124b1576124a660008261247a565b600181019050612493565b5050565b601f8211156124f6576124c781612396565b6124d0846123ab565b810160208510156124df578190505b6124f36124eb856123ab565b830182612492565b50505b505050565b600082821c905092915050565b6000612519600019846008026124fb565b1980831691505092915050565b60006125328383612508565b9150826002028217905092915050565b61254b82611959565b67ffffffffffffffff81111561256457612563611df3565b5b61256e82546122f9565b6125798282856124b5565b600060209050601f8311600181146125ac576000841561259a578287015190505b6125a48582612526565b86555061260c565b601f1984166125ba86612396565b60005b828110156125e2578489015182556001820191506020850194506020810190506125bd565b868310156125ff57848901516125fb601f891682612508565b8355505b6001600288020188555050505b505050505050565b600081905092915050565b600061262a82611959565b6126348185612614565b9350612644818560208601611975565b80840191505092915050565b600061265c828461261f565b915081905092915050565b7f4e487b7100000000000000000000000000000000000000000000000000000000600052603260045260246000fd5b7f4e487b7100000000000000000000000000000000000000000000000000000000600052601160045260246000fd5b60006126d082611beb565b91507fffffffffffffffffffffffffffffffffffffffffffffffffffffffffffffffff820361270257612701612696565b5b600182019050919050565b600061271882611beb565b915061272383611beb565b925082820190508082111561273b5761273a612696565b5b9291505056fea2646970667358221220126429a597421f58f1ce825558d1c3553fb1975cc79511a1a06e8623b31921ee64736f6c63430008120033",
  "linkReferences": {},
  "deployedLinkReferences": {}
}