{
  "_format": "hh-sol-artifact-1",
  "contractName": "CertificateContract",
  "sourceName": "contracts/CertificateContract.sol",
  "abi": [
    {
      "inputs": [],
      "stateMutability": "nonpayable",
      "type": "constructor"
    },
    {
      "anonymous": false,
      "inputs": [
        {
          "indexed": false,
          "internalType": "string",
          "name": "certificateHash",
          "type": "string"
        },
        {
          "indexed": true,
          "internalType": "address",
          "name": "issuedBy",
          "type": "address"
        },
        {
          "indexed": true,
          "internalType": "address",
          "name": "issuedTo",
          "type": "address"
        }
      ],
      "name": "CertificateIssued",
      "type": "event"
    },
    {
      "anonymous": false,
      "inputs": [
        {
          "indexed": false,
          "internalType": "string",
          "name": "instructorName",
          "type": "string"
        },
        {
          "indexed": false,
          "internalType": "string",
          "name": "programName",
          "type": "string"
        },
        {
          "indexed": true,
          "internalType": "address",
          "name": "instructorAddress",
          "type": "address"
        },
        {
          "indexed": true,
          "internalType": "uint256",
          "name": "programId",
          "type": "uint256"
        }
      ],
      "name": "InstructorAddedToProgram",
      "type": "event"
    },
    {
      "anonymous": false,
      "inputs": [
        {
          "indexed": false,
          "internalType": "string",
          "name": "name",
          "type": "string"
        },
        {
          "indexed": false,
          "internalType": "string",
          "name": "email",
          "type": "string"
        },
        {
          "indexed": true,
          "internalType": "address",
          "name": "instructorAddress",
          "type": "address"
        }
      ],
      "name": "InstructorCreated",
      "type": "event"
    },
    {
      "anonymous": false,
      "inputs": [
        {
          "indexed": false,
          "internalType": "string",
          "name": "instructorName",
          "type": "string"
        },
        {
          "indexed": false,
          "internalType": "string",
          "name": "programName",
          "type": "string"
        },
        {
          "indexed": true,
          "internalType": "address",
          "name": "instructorAddress",
          "type": "address"
        },
        {
          "indexed": true,
          "internalType": "uint256",
          "name": "programId",
          "type": "uint256"
        }
      ],
      "name": "InstructorRemovedFromProgram",
      "type": "event"
    },
    {
      "anonymous": false,
      "inputs": [
        {
          "indexed": false,
          "internalType": "string",
          "name": "name",
          "type": "string"
        },
        {
          "indexed": false,
          "internalType": "string",
          "name": "email",
          "type": "string"
        },
        {
          "indexed": true,
          "internalType": "address",
          "name": "organizationAddress",
          "type": "address"
        }
      ],
      "name": "OrganizationCreated",
      "type": "event"
    },
    {
      "anonymous": false,
      "inputs": [
        {
          "indexed": false,
          "internalType": "string",
          "name": "name",
          "type": "string"
        },
        {
          "indexed": true,
          "internalType": "address",
          "name": "organizationAddress",
          "type": "address"
        },
        {
          "indexed": true,
          "internalType": "uint256",
          "name": "programId",
          "type": "uint256"
        }
      ],
      "name": "ProgramCreated",
      "type": "event"
    },
    {
      "anonymous": false,
      "inputs": [
        {
          "indexed": false,
          "internalType": "string",
          "name": "studentName",
          "type": "string"
        },
        {
          "indexed": false,
          "internalType": "string",
          "name": "programName",
          "type": "string"
        },
        {
          "indexed": true,
          "internalType": "address",
          "name": "studentAddress",
          "type": "address"
        },
        {
          "indexed": true,
          "internalType": "uint256",
          "name": "programId",
          "type": "uint256"
        }
      ],
      "name": "StudentAddedToProgram",
      "type": "event"
    },
    {
      "anonymous": false,
      "inputs": [
        {
          "indexed": false,
          "internalType": "string",
          "name": "name",
          "type": "string"
        },
        {
          "indexed": false,
          "internalType": "string",
          "name": "email",
          "type": "string"
        },
        {
          "indexed": true,
          "internalType": "address",
          "name": "studentAddress",
          "type": "address"
        }
      ],
      "name": "StudentCreated",
      "type": "event"
    },
    {
      "anonymous": false,
      "inputs": [
        {
          "indexed": false,
          "internalType": "string",
          "name": "studentName",
          "type": "string"
        },
        {
          "indexed": false,
          "internalType": "string",
          "name": "programName",
          "type": "string"
        },
        {
          "indexed": true,
          "internalType": "address",
          "name": "studentAddress",
          "type": "address"
        },
        {
          "indexed": true,
          "internalType": "uint256",
          "name": "programId",
          "type": "uint256"
        }
      ],
      "name": "StudentRemovedFromProgram",
      "type": "event"
    },
    {
      "inputs": [
        {
          "internalType": "address",
          "name": "_student",
          "type": "address"
        },
        {
          "internalType": "uint256",
          "name": "_programId",
          "type": "uint256"
        }
      ],
      "name": "addStudentToProgram",
      "outputs": [],
      "stateMutability": "nonpayable",
      "type": "function"
    },
    {
      "inputs": [
        {
          "internalType": "address",
          "name": "",
          "type": "address"
        },
        {
          "internalType": "uint256",
          "name": "",
          "type": "uint256"
        }
      ],
      "name": "certificatesByStudent",
      "outputs": [
        {
          "internalType": "string",
          "name": "certificateHash",
          "type": "string"
        },
        {
          "internalType": "address",
          "name": "issuedBy",
          "type": "address"
        },
        {
          "internalType": "address",
          "name": "issuedTo",
          "type": "address"
        }
      ],
      "stateMutability": "view",
      "type": "function"
    },
    {
      "inputs": [
        {
          "internalType": "string",
          "name": "_name",
          "type": "string"
        },
        {
          "internalType": "string",
          "name": "_email",
          "type": "string"
        }
      ],
      "name": "createInstructor",
      "outputs": [],
      "stateMutability": "nonpayable",
      "type": "function"
    },
    {
      "inputs": [
        {
          "internalType": "string",
          "name": "_name",
          "type": "string"
        },
        {
          "internalType": "string",
          "name": "_email",
          "type": "string"
        }
      ],
      "name": "createOrganization",
      "outputs": [],
      "stateMutability": "nonpayable",
      "type": "function"
    },
    {
      "inputs": [
        {
          "internalType": "string",
          "name": "_name",
          "type": "string"
        }
      ],
      "name": "createProgram",
      "outputs": [],
      "stateMutability": "nonpayable",
      "type": "function"
    },
    {
      "inputs": [
        {
          "internalType": "string",
          "name": "_name",
          "type": "string"
        },
        {
          "internalType": "string",
          "name": "_email",
          "type": "string"
        }
      ],
      "name": "createStudent",
      "outputs": [],
      "stateMutability": "nonpayable",
      "type": "function"
    },
    {
      "inputs": [],
      "name": "getMyCertificates",
      "outputs": [
        {
          "components": [
            {
              "internalType": "string",
              "name": "certificateHash",
              "type": "string"
            },
            {
              "internalType": "address",
              "name": "issuedBy",
              "type": "address"
            },
            {
              "internalType": "address",
              "name": "issuedTo",
              "type": "address"
            }
          ],
          "internalType": "struct CertificateContract.Certificate[]",
          "name": "",
          "type": "tuple[]"
        }
      ],
      "stateMutability": "view",
      "type": "function"
    },
    {
      "inputs": [],
      "name": "getMyPrograms",
      "outputs": [
        {
          "components": [
            {
              "internalType": "string",
              "name": "name",
              "type": "string"
            }
          ],
          "internalType": "struct CertificateContract.Program[]",
          "name": "",
          "type": "tuple[]"
        }
      ],
      "stateMutability": "view",
      "type": "function"
    },
    {
      "inputs": [
        {
          "internalType": "uint256",
          "name": "_programId",
          "type": "uint256"
        }
      ],
      "name": "getStudentsInProgram",
      "outputs": [
        {
          "components": [
            {
              "internalType": "string",
              "name": "name",
              "type": "string"
            },
            {
              "internalType": "string",
              "name": "email",
              "type": "string"
            }
          ],
          "internalType": "struct CertificateContract.Student[]",
          "name": "",
          "type": "tuple[]"
        }
      ],
      "stateMutability": "view",
      "type": "function"
    },
    {
      "inputs": [],
      "name": "instructorCount",
      "outputs": [
        {
          "internalType": "uint256",
          "name": "",
          "type": "uint256"
        }
      ],
      "stateMutability": "view",
      "type": "function"
    },
    {
      "inputs": [
        {
          "internalType": "address",
          "name": "",
          "type": "address"
        }
      ],
      "name": "instructors",
      "outputs": [
        {
          "internalType": "string",
          "name": "name",
          "type": "string"
        },
        {
          "internalType": "string",
          "name": "email",
          "type": "string"
        }
      ],
      "stateMutability": "view",
      "type": "function"
    },
    {
      "inputs": [
        {
          "internalType": "uint256",
          "name": "",
          "type": "uint256"
        },
        {
          "internalType": "uint256",
          "name": "",
          "type": "uint256"
        }
      ],
      "name": "instructorsByProgram",
      "outputs": [
        {
          "internalType": "string",
          "name": "name",
          "type": "string"
        },
        {
          "internalType": "string",
          "name": "email",
          "type": "string"
        }
      ],
      "stateMutability": "view",
      "type": "function"
    },
    {
      "inputs": [
        {
          "internalType": "string",
          "name": "_certificateHash",
          "type": "string"
        },
        {
          "internalType": "address",
          "name": "_issuedTo",
          "type": "address"
        }
      ],
      "name": "issueCertificate",
      "outputs": [],
      "stateMutability": "nonpayable",
      "type": "function"
    },
    {
      "inputs": [],
      "name": "organizationCount",
      "outputs": [
        {
          "internalType": "uint256",
          "name": "",
          "type": "uint256"
        }
      ],
      "stateMutability": "view",
      "type": "function"
    },
    {
      "inputs": [
        {
          "internalType": "address",
          "name": "",
          "type": "address"
        }
      ],
      "name": "organizations",
      "outputs": [
        {
          "internalType": "string",
          "name": "name",
          "type": "string"
        },
        {
          "internalType": "string",
          "name": "email",
          "type": "string"
        }
      ],
      "stateMutability": "view",
      "type": "function"
    },
    {
      "inputs": [],
      "name": "owner",
      "outputs": [
        {
          "internalType": "address",
          "name": "",
          "type": "address"
        }
      ],
      "stateMutability": "view",
      "type": "function"
    },
    {
      "inputs": [],
      "name": "programCount",
      "outputs": [
        {
          "internalType": "uint256",
          "name": "",
          "type": "uint256"
        }
      ],
      "stateMutability": "view",
      "type": "function"
    },
    {
      "inputs": [
        {
          "internalType": "uint256",
          "name": "",
          "type": "uint256"
        }
      ],
      "name": "programs",
      "outputs": [
        {
          "internalType": "string",
          "name": "name",
          "type": "string"
        }
      ],
      "stateMutability": "view",
      "type": "function"
    },
    {
      "inputs": [
        {
          "internalType": "address",
          "name": "",
          "type": "address"
        },
        {
          "internalType": "uint256",
          "name": "",
          "type": "uint256"
        }
      ],
      "name": "programsByInstructor",
      "outputs": [
        {
          "internalType": "string",
          "name": "name",
          "type": "string"
        }
      ],
      "stateMutability": "view",
      "type": "function"
    },
    {
      "inputs": [
        {
          "internalType": "address",
          "name": "",
          "type": "address"
        },
        {
          "internalType": "uint256",
          "name": "",
          "type": "uint256"
        }
      ],
      "name": "programsByOrganization",
      "outputs": [
        {
          "internalType": "string",
          "name": "name",
          "type": "string"
        }
      ],
      "stateMutability": "view",
      "type": "function"
    },
    {
      "inputs": [
        {
          "internalType": "address",
          "name": "_instructor",
          "type": "address"
        },
        {
          "internalType": "uint256",
          "name": "_programId",
          "type": "uint256"
        }
      ],
      "name": "removeInstructorFromProgram",
      "outputs": [],
      "stateMutability": "nonpayable",
      "type": "function"
    },
    {
      "inputs": [
        {
          "internalType": "address",
          "name": "_student",
          "type": "address"
        },
        {
          "internalType": "uint256",
          "name": "_programId",
          "type": "uint256"
        }
      ],
      "name": "removeStudentFromProgram",
      "outputs": [],
      "stateMutability": "nonpayable",
      "type": "function"
    },
    {
      "inputs": [],
      "name": "studentCount",
      "outputs": [
        {
          "internalType": "uint256",
          "name": "",
          "type": "uint256"
        }
      ],
      "stateMutability": "view",
      "type": "function"
    },
    {
      "inputs": [
        {
          "internalType": "address",
          "name": "",
          "type": "address"
        }
      ],
      "name": "students",
      "outputs": [
        {
          "internalType": "string",
          "name": "name",
          "type": "string"
        },
        {
          "internalType": "string",
          "name": "email",
          "type": "string"
        }
      ],
      "stateMutability": "view",
      "type": "function"
    },
    {
      "inputs": [
        {
          "internalType": "uint256",
          "name": "",
          "type": "uint256"
        },
        {
          "internalType": "uint256",
          "name": "",
          "type": "uint256"
        }
      ],
      "name": "studentsByProgram",
      "outputs": [
        {
          "internalType": "string",
          "name": "name",
          "type": "string"
        },
        {
          "internalType": "string",
          "name": "email",
          "type": "string"
        }
      ],
      "stateMutability": "view",
      "type": "function"
    },
    {
      "inputs": [
        {
          "internalType": "string",
          "name": "_certificateHash",
          "type": "string"
        },
        {
          "internalType": "address",
          "name": "_issuedBy",
          "type": "address"
        },
        {
          "internalType": "address",
          "name": "_issuedTo",
          "type": "address"
        }
      ],
      "name": "verifyCertificate",
      "outputs": [
        {
          "internalType": "bool",
          "name": "",
          "type": "bool"
        }
      ],
      "stateMutability": "view",
      "type": "function"
    }
  ],
  "bytecode": "0x60806040525f6001555f6002555f6003555f60045534801561001f575f80fd5b50335f806101000a81548173ffffffffffffffffffffffffffffffffffffffff021916908373ffffffffffffffffffffffffffffffffffffffff1602179055506134dc8061006c5f395ff3fe608060405234801561000f575f80fd5b506004361061018c575f3560e01c80638dae48f9116100dc578063a6c807a911610095578063e581f9ee1161006f578063e581f9ee146104e5578063f1c6210414610503578063fdcaed6d14610521578063ffc8fa7a1461053d5761018c565b8063a6c807a914610454578063b0ed60db14610485578063c109e849146104b55761018c565b80638dae48f91461037f57806392db28161461039d5780639e5be204146103cd5780639f796634146103e95780639ff698af14610407578063a411ef20146104385761018c565b80635ab6f738116101495780637c91772a116101235780637c91772a146102f95780637f9a0b9e146103155780638afaa0c4146103455780638da5cb5b146103615761018c565b80635ab6f7381461028f57806367d4ddf6146102bf5780637c573169146102db5761018c565b80632a47d91c14610190578063314901f4146101c15780633fc8352a146101df5780634a99fbfe146102105780635a1f74061461022c5780635aa0bac61461025d575b5f80fd5b6101aa60048036038101906101a591906124b4565b610559565b6040516101b8929190612569565b60405180910390f35b6101c9610685565b6040516101d691906126c8565b60405180910390f35b6101f960048036038101906101f4919061271b565b6107a7565b604051610207929190612569565b60405180910390f35b61022a60048036038101906102259190612885565b6108ed565b005b610246600480360381019061024191906124b4565b6109db565b604051610254929190612569565b60405180910390f35b610277600480360381019061027291906128fb565b610b07565b60405161028693929190612948565b60405180910390f35b6102a960048036038101906102a49190612984565b610c0b565b6040516102b69190612aab565b60405180910390f35b6102d960048036038101906102d49190612acb565b610e7b565b005b6102e36110bd565b6040516102f09190612c3c565b60405180910390f35b610313600480360381019061030e9190612885565b61128d565b005b61032f600480360381019061032a91906128fb565b61137c565b60405161033c9190612c5c565b60405180910390f35b61035f600480360381019061035a9190612c7c565b611432565b005b61036961159b565b6040516103769190612cc3565b60405180910390f35b6103876115be565b6040516103949190612ceb565b60405180910390f35b6103b760048036038101906103b29190612984565b6115c4565b6040516103c49190612c5c565b60405180910390f35b6103e760048036038101906103e291906128fb565b611664565b005b6103f1611895565b6040516103fe9190612ceb565b60405180910390f35b610421600480360381019061041c919061271b565b61189b565b60405161042f929190612569565b60405180910390f35b610452600480360381019061044d9190612885565b6119e1565b005b61046e600480360381019061046991906124b4565b611acf565b60405161047c929190612569565b60405180910390f35b61049f600480360381019061049a9190612d04565b611bfb565b6040516104ac9190612d8a565b60405180910390f35b6104cf60048036038101906104ca91906128fb565b611f19565b6040516104dc9190612c5c565b60405180910390f35b6104ed611fcf565b6040516104fa9190612ceb565b60405180910390f35b61050b611fd5565b6040516105189190612ceb565b60405180910390f35b61053b600480360381019061053691906128fb565b611fdb565b005b610557600480360381019061055291906128fb565b61220c565b005b6007602052805f5260405f205f91509050805f01805461057890612dd0565b80601f01602080910402602001604051908101604052809291908181526020018280546105a490612dd0565b80156105ef5780601f106105c6576101008083540402835291602001916105ef565b820191905f5260205f20905b8154815290600101906020018083116105d257829003601f168201915b50505050509080600101805461060490612dd0565b80601f016020809104026020016040519081016040528092919081815260200182805461063090612dd0565b801561067b5780601f106106525761010080835404028352916020019161067b565b820191905f5260205f20905b81548152906001019060200180831161065e57829003601f168201915b5050505050905082565b6060600a5f3373ffffffffffffffffffffffffffffffffffffffff1673ffffffffffffffffffffffffffffffffffffffff1681526020019081526020015f20805480602002602001604051908101604052809291908181526020015f905b8282101561079e578382905f5260205f20016040518060200160405290815f8201805461070f90612dd0565b80601f016020809104026020016040519081016040528092919081815260200182805461073b90612dd0565b80156107865780601f1061075d57610100808354040283529160200191610786565b820191905f5260205f20905b81548152906001019060200180831161076957829003601f168201915b505050505081525050815260200190600101906106e3565b50505050905090565b600d602052815f5260405f2081815481106107c0575f80fd5b905f5260205f2090600202015f9150915050805f0180546107e090612dd0565b80601f016020809104026020016040519081016040528092919081815260200182805461080c90612dd0565b80156108575780601f1061082e57610100808354040283529160200191610857565b820191905f5260205f20905b81548152906001019060200180831161083a57829003601f168201915b50505050509080600101805461086c90612dd0565b80601f016020809104026020016040519081016040528092919081815260200182805461089890612dd0565b80156108e35780601f106108ba576101008083540402835291602001916108e3565b820191905f5260205f20905b8154815290600101906020018083116108c657829003601f168201915b5050505050905082565b61090360016004546123dc90919063ffffffff16565b60048190555060405180604001604052808381526020018281525060075f3373ffffffffffffffffffffffffffffffffffffffff1673ffffffffffffffffffffffffffffffffffffffff1681526020019081526020015f205f820151815f01908161096e9190612f9d565b5060208201518160010190816109849190612f9d565b509050503373ffffffffffffffffffffffffffffffffffffffff167e8e44de163bf30e94a254b4534b229364292069cca92fe58f70922f82ef1ba983836040516109cf929190612569565b60405180910390a25050565b6005602052805f5260405f205f91509050805f0180546109fa90612dd0565b80601f0160208091040260200160405190810160405280929190818152602001828054610a2690612dd0565b8015610a715780601f10610a4857610100808354040283529160200191610a71565b820191905f5260205f20905b815481529060010190602001808311610a5457829003601f168201915b505050505090806001018054610a8690612dd0565b80601f0160208091040260200160405190810160405280929190818152602001828054610ab290612dd0565b8015610afd5780601f10610ad457610100808354040283529160200191610afd565b820191905f5260205f20905b815481529060010190602001808311610ae057829003601f168201915b5050505050905082565b6009602052815f5260405f208181548110610b20575f80fd5b905f5260205f2090600302015f9150915050805f018054610b4090612dd0565b80601f0160208091040260200160405190810160405280929190818152602001828054610b6c90612dd0565b8015610bb75780601f10610b8e57610100808354040283529160200191610bb7565b820191905f5260205f20905b815481529060010190602001808311610b9a57829003601f168201915b505050505090806001015f9054906101000a900473ffffffffffffffffffffffffffffffffffffffff1690806002015f9054906101000a900473ffffffffffffffffffffffffffffffffffffffff16905083565b60605f60055f3373ffffffffffffffffffffffffffffffffffffffff1673ffffffffffffffffffffffffffffffffffffffff1681526020019081526020015f205f018054610c5890612dd0565b9050141580610cb257505f60075f3373ffffffffffffffffffffffffffffffffffffffff1673ffffffffffffffffffffffffffffffffffffffff1681526020019081526020015f205f018054610cad90612dd0565b905014155b610cf1576040517f08c379a0000000000000000000000000000000000000000000000000000000008152600401610ce8906130b6565b60405180910390fd5b600b5f8381526020019081526020015f20805480602002602001604051908101604052809291908181526020015f905b82821015610e70578382905f5260205f2090600202016040518060400160405290815f82018054610d5190612dd0565b80601f0160208091040260200160405190810160405280929190818152602001828054610d7d90612dd0565b8015610dc85780601f10610d9f57610100808354040283529160200191610dc8565b820191905f5260205f20905b815481529060010190602001808311610dab57829003601f168201915b50505050508152602001600182018054610de190612dd0565b80601f0160208091040260200160405190810160405280929190818152602001828054610e0d90612dd0565b8015610e585780601f10610e2f57610100808354040283529160200191610e58565b820191905f5260205f20905b815481529060010190602001808311610e3b57829003601f168201915b50505050508152505081526020019060010190610d21565b505050509050919050565b5f60055f3373ffffffffffffffffffffffffffffffffffffffff1673ffffffffffffffffffffffffffffffffffffffff1681526020019081526020015f205f018054610ec690612dd0565b905003610f08576040517f08c379a0000000000000000000000000000000000000000000000000000000008152600401610eff9061311e565b60405180910390fd5b60095f8273ffffffffffffffffffffffffffffffffffffffff1673ffffffffffffffffffffffffffffffffffffffff1681526020019081526020015f2060405180606001604052808481526020013373ffffffffffffffffffffffffffffffffffffffff1681526020018373ffffffffffffffffffffffffffffffffffffffff16815250908060018154018082558091505060019003905f5260205f2090600302015f909190919091505f820151815f019081610fc59190612f9d565b506020820151816001015f6101000a81548173ffffffffffffffffffffffffffffffffffffffff021916908373ffffffffffffffffffffffffffffffffffffffff1602179055506040820151816002015f6101000a81548173ffffffffffffffffffffffffffffffffffffffff021916908373ffffffffffffffffffffffffffffffffffffffff16021790555050508073ffffffffffffffffffffffffffffffffffffffff163373ffffffffffffffffffffffffffffffffffffffff167fc2c609b4c31b0c752f6a8691bfa92d3bb7db975421b76c586f8d1963a44c28f7846040516110b19190612c5c565b60405180910390a35050565b606060095f3373ffffffffffffffffffffffffffffffffffffffff1673ffffffffffffffffffffffffffffffffffffffff1681526020019081526020015f20805480602002602001604051908101604052809291908181526020015f905b82821015611284578382905f5260205f2090600302016040518060600160405290815f8201805461114b90612dd0565b80601f016020809104026020016040519081016040528092919081815260200182805461117790612dd0565b80156111c25780601f10611199576101008083540402835291602001916111c2565b820191905f5260205f20905b8154815290600101906020018083116111a557829003601f168201915b50505050508152602001600182015f9054906101000a900473ffffffffffffffffffffffffffffffffffffffff1673ffffffffffffffffffffffffffffffffffffffff1673ffffffffffffffffffffffffffffffffffffffff168152602001600282015f9054906101000a900473ffffffffffffffffffffffffffffffffffffffff1673ffffffffffffffffffffffffffffffffffffffff1673ffffffffffffffffffffffffffffffffffffffff16815250508152602001906001019061111b565b50505050905090565b6112a360016003546123dc90919063ffffffff16565b60038190555060405180604001604052808381526020018281525060065f3373ffffffffffffffffffffffffffffffffffffffff1673ffffffffffffffffffffffffffffffffffffffff1681526020019081526020015f205f820151815f01908161130e9190612f9d565b5060208201518160010190816113249190612f9d565b509050503373ffffffffffffffffffffffffffffffffffffffff167f6bb189734e9cd805e21805be4acc1704c6f805d7617d8d714e159b04b1ac38e78383604051611370929190612569565b60405180910390a25050565b600a602052815f5260405f208181548110611395575f80fd5b905f5260205f20015f9150915050805f0180546113b190612dd0565b80601f01602080910402602001604051908101604052809291908181526020018280546113dd90612dd0565b80156114285780601f106113ff57610100808354040283529160200191611428565b820191905f5260205f20905b81548152906001019060200180831161140b57829003601f168201915b5050505050905081565b5f60055f3373ffffffffffffffffffffffffffffffffffffffff1673ffffffffffffffffffffffffffffffffffffffff1681526020019081526020015f205f01805461147d90612dd0565b9050036114bf576040517f08c379a00000000000000000000000000000000000000000000000000000000081526004016114b69061311e565b60405180910390fd5b6114d560016002546123dc90919063ffffffff16565b60028190555060405180602001604052808281525060085f60025481526020019081526020015f205f820151815f0190816115109190612f9d565b50905050600a5f3373ffffffffffffffffffffffffffffffffffffffff1673ffffffffffffffffffffffffffffffffffffffff1681526020019081526020015f20604051806020016040528083815250908060018154018082558091505060019003905f5260205f20015f909190919091505f820151815f0190816115959190612f9d565b50505050565b5f8054906101000a900473ffffffffffffffffffffffffffffffffffffffff1681565b60045481565b6008602052805f5260405f205f91509050805f0180546115e390612dd0565b80601f016020809104026020016040519081016040528092919081815260200182805461160f90612dd0565b801561165a5780601f106116315761010080835404028352916020019161165a565b820191905f5260205f20905b81548152906001019060200180831161163d57829003601f168201915b5050505050905081565b5f60055f3373ffffffffffffffffffffffffffffffffffffffff1673ffffffffffffffffffffffffffffffffffffffff1681526020019081526020015f205f0180546116af90612dd0565b9050036116f1576040517f08c379a00000000000000000000000000000000000000000000000000000000081526004016116e89061311e565b60405180910390fd5b60075f8373ffffffffffffffffffffffffffffffffffffffff1673ffffffffffffffffffffffffffffffffffffffff1681526020019081526020015f205f8082015f61173d91906123f1565b600182015f61174c91906123f1565b50505f5b600d5f8381526020019081526020015f20805490508110156118905760075f8473ffffffffffffffffffffffffffffffffffffffff1673ffffffffffffffffffffffffffffffffffffffff1681526020019081526020015f205f016040516020016117bb91906131c6565b60405160208183030381529060405280519060200120600d5f8481526020019081526020015f2082815481106117f4576117f36131dc565b5b905f5260205f2090600202015f0160405160200161181291906131c6565b604051602081830303815290604052805190602001200361187d57600d5f8381526020019081526020015f2081815481106118505761184f6131dc565b5b905f5260205f2090600202015f8082015f61186b91906123f1565b600182015f61187a91906123f1565b50505b808061188890613236565b915050611750565b505050565b60025481565b600b602052815f5260405f2081815481106118b4575f80fd5b905f5260205f2090600202015f9150915050805f0180546118d490612dd0565b80601f016020809104026020016040519081016040528092919081815260200182805461190090612dd0565b801561194b5780601f106119225761010080835404028352916020019161194b565b820191905f5260205f20905b81548152906001019060200180831161192e57829003601f168201915b50505050509080600101805461196090612dd0565b80601f016020809104026020016040519081016040528092919081815260200182805461198c90612dd0565b80156119d75780601f106119ae576101008083540402835291602001916119d7565b820191905f5260205f20905b8154815290600101906020018083116119ba57829003601f168201915b5050505050905082565b6119f6600180546123dc90919063ffffffff16565b60018190555060405180604001604052808381526020018281525060055f3373ffffffffffffffffffffffffffffffffffffffff1673ffffffffffffffffffffffffffffffffffffffff1681526020019081526020015f205f820151815f019081611a619190612f9d565b506020820151816001019081611a779190612f9d565b509050503373ffffffffffffffffffffffffffffffffffffffff167ff43468d632970351cebf716e29ad6e7b78918f4c6824ba9574cf73e6edac78148383604051611ac3929190612569565b60405180910390a25050565b6006602052805f5260405f205f91509050805f018054611aee90612dd0565b80601f0160208091040260200160405190810160405280929190818152602001828054611b1a90612dd0565b8015611b655780601f10611b3c57610100808354040283529160200191611b65565b820191905f5260205f20905b815481529060010190602001808311611b4857829003601f168201915b505050505090806001018054611b7a90612dd0565b80601f0160208091040260200160405190810160405280929190818152602001828054611ba690612dd0565b8015611bf15780601f10611bc857610100808354040283529160200191611bf1565b820191905f5260205f20905b815481529060010190602001808311611bd457829003601f168201915b5050505050905082565b5f8060095f8473ffffffffffffffffffffffffffffffffffffffff1673ffffffffffffffffffffffffffffffffffffffff1681526020019081526020015f20805480602002602001604051908101604052809291908181526020015f905b82821015611dc2578382905f5260205f2090600302016040518060600160405290815f82018054611c8990612dd0565b80601f0160208091040260200160405190810160405280929190818152602001828054611cb590612dd0565b8015611d005780601f10611cd757610100808354040283529160200191611d00565b820191905f5260205f20905b815481529060010190602001808311611ce357829003601f168201915b50505050508152602001600182015f9054906101000a900473ffffffffffffffffffffffffffffffffffffffff1673ffffffffffffffffffffffffffffffffffffffff1673ffffffffffffffffffffffffffffffffffffffff168152602001600282015f9054906101000a900473ffffffffffffffffffffffffffffffffffffffff1673ffffffffffffffffffffffffffffffffffffffff1673ffffffffffffffffffffffffffffffffffffffff168152505081526020019060010190611c59565b5050505090505f5b8151811015611f0c5785604051602001611de491906132ad565b60405160208183030381529060405280519060200120828281518110611e0d57611e0c6131dc565b5b60200260200101515f0151604051602001611e2891906132ad565b60405160208183030381529060405280519060200120148015611e9457508473ffffffffffffffffffffffffffffffffffffffff16828281518110611e7057611e6f6131dc565b5b60200260200101516020015173ffffffffffffffffffffffffffffffffffffffff16145b8015611ee957508373ffffffffffffffffffffffffffffffffffffffff16828281518110611ec557611ec46131dc565b5b60200260200101516040015173ffffffffffffffffffffffffffffffffffffffff16145b15611ef957600192505050611f12565b8080611f0490613236565b915050611dca565b505f9150505b9392505050565b600c602052815f5260405f208181548110611f32575f80fd5b905f5260205f20015f9150915050805f018054611f4e90612dd0565b80601f0160208091040260200160405190810160405280929190818152602001828054611f7a90612dd0565b8015611fc55780601f10611f9c57610100808354040283529160200191611fc5565b820191905f5260205f20905b815481529060010190602001808311611fa857829003601f168201915b5050505050905081565b60035481565b60015481565b5f60055f3373ffffffffffffffffffffffffffffffffffffffff1673ffffffffffffffffffffffffffffffffffffffff1681526020019081526020015f205f01805461202690612dd0565b905003612068576040517f08c379a000000000000000000000000000000000000000000000000000000000815260040161205f9061311e565b60405180910390fd5b60065f8373ffffffffffffffffffffffffffffffffffffffff1673ffffffffffffffffffffffffffffffffffffffff1681526020019081526020015f205f8082015f6120b491906123f1565b600182015f6120c391906123f1565b50505f5b600b5f8381526020019081526020015f20805490508110156122075760065f8473ffffffffffffffffffffffffffffffffffffffff1673ffffffffffffffffffffffffffffffffffffffff1681526020019081526020015f205f0160405160200161213291906131c6565b60405160208183030381529060405280519060200120600b5f8481526020019081526020015f20828154811061216b5761216a6131dc565b5b905f5260205f2090600202015f0160405160200161218991906131c6565b60405160208183030381529060405280519060200120036121f457600b5f8381526020019081526020015f2081815481106121c7576121c66131dc565b5b905f5260205f2090600202015f8082015f6121e291906123f1565b600182015f6121f191906123f1565b50505b80806121ff90613236565b9150506120c7565b505050565b5f60055f3373ffffffffffffffffffffffffffffffffffffffff1673ffffffffffffffffffffffffffffffffffffffff1681526020019081526020015f205f01805461225790612dd0565b905003612299576040517f08c379a00000000000000000000000000000000000000000000000000000000081526004016122909061311e565b60405180910390fd5b600b5f8281526020019081526020015f2060065f8473ffffffffffffffffffffffffffffffffffffffff1673ffffffffffffffffffffffffffffffffffffffff1681526020019081526020015f20908060018154018082558091505060019003905f5260205f2090600202015f909190919091505f8201815f01908161231f91906132d8565b506001820181600101908161233491906132d8565b505050808273ffffffffffffffffffffffffffffffffffffffff167f5062a39a1084190954165004c06b41ba85e025b8bc13b72d14cca26965059a3360065f8673ffffffffffffffffffffffffffffffffffffffff1673ffffffffffffffffffffffffffffffffffffffff1681526020019081526020015f205f0160085f8681526020019081526020015f205f016040516123d092919061343e565b60405180910390a35050565b5f81836123e99190613473565b905092915050565b5080546123fd90612dd0565b5f825580601f1061240e575061242b565b601f0160209004905f5260205f209081019061242a919061242e565b5b50565b5b80821115612445575f815f90555060010161242f565b5090565b5f604051905090565b5f80fd5b5f80fd5b5f73ffffffffffffffffffffffffffffffffffffffff82169050919050565b5f6124838261245a565b9050919050565b61249381612479565b811461249d575f80fd5b50565b5f813590506124ae8161248a565b92915050565b5f602082840312156124c9576124c8612452565b5b5f6124d6848285016124a0565b91505092915050565b5f81519050919050565b5f82825260208201905092915050565b5f5b838110156125165780820151818401526020810190506124fb565b5f8484015250505050565b5f601f19601f8301169050919050565b5f61253b826124df565b61254581856124e9565b93506125558185602086016124f9565b61255e81612521565b840191505092915050565b5f6040820190508181035f8301526125818185612531565b905081810360208301526125958184612531565b90509392505050565b5f81519050919050565b5f82825260208201905092915050565b5f819050602082019050919050565b5f82825260208201905092915050565b5f6125e1826124df565b6125eb81856125c7565b93506125fb8185602086016124f9565b61260481612521565b840191505092915050565b5f602083015f8301518482035f86015261262982826125d7565b9150508091505092915050565b5f612641838361260f565b905092915050565b5f602082019050919050565b5f61265f8261259e565b61266981856125a8565b93508360208202850161267b856125b8565b805f5b858110156126b657848403895281516126978582612636565b94506126a283612649565b925060208a0199505060018101905061267e565b50829750879550505050505092915050565b5f6020820190508181035f8301526126e08184612655565b905092915050565b5f819050919050565b6126fa816126e8565b8114612704575f80fd5b50565b5f81359050612715816126f1565b92915050565b5f806040838503121561273157612730612452565b5b5f61273e85828601612707565b925050602061274f85828601612707565b9150509250929050565b5f80fd5b5f80fd5b7f4e487b71000000000000000000000000000000000000000000000000000000005f52604160045260245ffd5b61279782612521565b810181811067ffffffffffffffff821117156127b6576127b5612761565b5b80604052505050565b5f6127c8612449565b90506127d4828261278e565b919050565b5f67ffffffffffffffff8211156127f3576127f2612761565b5b6127fc82612521565b9050602081019050919050565b828183375f83830152505050565b5f612829612824846127d9565b6127bf565b9050828152602081018484840111156128455761284461275d565b5b612850848285612809565b509392505050565b5f82601f83011261286c5761286b612759565b5b813561287c848260208601612817565b91505092915050565b5f806040838503121561289b5761289a612452565b5b5f83013567ffffffffffffffff8111156128b8576128b7612456565b5b6128c485828601612858565b925050602083013567ffffffffffffffff8111156128e5576128e4612456565b5b6128f185828601612858565b9150509250929050565b5f806040838503121561291157612910612452565b5b5f61291e858286016124a0565b925050602061292f85828601612707565b9150509250929050565b61294281612479565b82525050565b5f6060820190508181035f8301526129608186612531565b905061296f6020830185612939565b61297c6040830184612939565b949350505050565b5f6020828403121561299957612998612452565b5b5f6129a684828501612707565b91505092915050565b5f81519050919050565b5f82825260208201905092915050565b5f819050602082019050919050565b5f604083015f8301518482035f8601526129f282826125d7565b91505060208301518482036020860152612a0c82826125d7565b9150508091505092915050565b5f612a2483836129d8565b905092915050565b5f602082019050919050565b5f612a42826129af565b612a4c81856129b9565b935083602082028501612a5e856129c9565b805f5b85811015612a995784840389528151612a7a8582612a19565b9450612a8583612a2c565b925060208a01995050600181019050612a61565b50829750879550505050505092915050565b5f6020820190508181035f830152612ac38184612a38565b905092915050565b5f8060408385031215612ae157612ae0612452565b5b5f83013567ffffffffffffffff811115612afe57612afd612456565b5b612b0a85828601612858565b9250506020612b1b858286016124a0565b9150509250929050565b5f81519050919050565b5f82825260208201905092915050565b5f819050602082019050919050565b612b5781612479565b82525050565b5f606083015f8301518482035f860152612b7782826125d7565b9150506020830151612b8c6020860182612b4e565b506040830151612b9f6040860182612b4e565b508091505092915050565b5f612bb58383612b5d565b905092915050565b5f602082019050919050565b5f612bd382612b25565b612bdd8185612b2f565b935083602082028501612bef85612b3f565b805f5b85811015612c2a5784840389528151612c0b8582612baa565b9450612c1683612bbd565b925060208a01995050600181019050612bf2565b50829750879550505050505092915050565b5f6020820190508181035f830152612c548184612bc9565b905092915050565b5f6020820190508181035f830152612c748184612531565b905092915050565b5f60208284031215612c9157612c90612452565b5b5f82013567ffffffffffffffff811115612cae57612cad612456565b5b612cba84828501612858565b91505092915050565b5f602082019050612cd65f830184612939565b92915050565b612ce5816126e8565b82525050565b5f602082019050612cfe5f830184612cdc565b92915050565b5f805f60608486031215612d1b57612d1a612452565b5b5f84013567ffffffffffffffff811115612d3857612d37612456565b5b612d4486828701612858565b9350506020612d55868287016124a0565b9250506040612d66868287016124a0565b9150509250925092565b5f8115159050919050565b612d8481612d70565b82525050565b5f602082019050612d9d5f830184612d7b565b92915050565b7f4e487b71000000000000000000000000000000000000000000000000000000005f52602260045260245ffd5b5f6002820490506001821680612de757607f821691505b602082108103612dfa57612df9612da3565b5b50919050565b5f819050815f5260205f209050919050565b5f6020601f8301049050919050565b5f82821b905092915050565b5f60088302612e5c7fffffffffffffffffffffffffffffffffffffffffffffffffffffffffffffffff82612e21565b612e668683612e21565b95508019841693508086168417925050509392505050565b5f819050919050565b5f612ea1612e9c612e97846126e8565b612e7e565b6126e8565b9050919050565b5f819050919050565b612eba83612e87565b612ece612ec682612ea8565b848454612e2d565b825550505050565b5f90565b612ee2612ed6565b612eed818484612eb1565b505050565b5b81811015612f1057612f055f82612eda565b600181019050612ef3565b5050565b601f821115612f5557612f2681612e00565b612f2f84612e12565b81016020851015612f3e578190505b612f52612f4a85612e12565b830182612ef2565b50505b505050565b5f82821c905092915050565b5f612f755f1984600802612f5a565b1980831691505092915050565b5f612f8d8383612f66565b9150826002028217905092915050565b612fa6826124df565b67ffffffffffffffff811115612fbf57612fbe612761565b5b612fc98254612dd0565b612fd4828285612f14565b5f60209050601f831160018114613005575f8415612ff3578287015190505b612ffd8582612f82565b865550613064565b601f19841661301386612e00565b5f5b8281101561303a57848901518255600182019150602085019450602081019050613015565b868310156130575784890151613053601f891682612f66565b8355505b6001600288020188555050505b505050505050565b7f4e4f545f4f5247414e495a45525f4f525f494e5354525543544f5200000000005f82015250565b5f6130a0601b836124e9565b91506130ab8261306c565b602082019050919050565b5f6020820190508181035f8301526130cd81613094565b9050919050565b7f4e4f545f4f5247414e495a4552000000000000000000000000000000000000005f82015250565b5f613108600d836124e9565b9150613113826130d4565b602082019050919050565b5f6020820190508181035f830152613135816130fc565b9050919050565b5f81905092915050565b5f815461315281612dd0565b61315c818661313c565b9450600182165f8114613176576001811461318b576131bd565b60ff19831686528115158202860193506131bd565b61319485612e00565b5f5b838110156131b557815481890152600182019150602081019050613196565b838801955050505b50505092915050565b5f6131d18284613146565b915081905092915050565b7f4e487b71000000000000000000000000000000000000000000000000000000005f52603260045260245ffd5b7f4e487b71000000000000000000000000000000000000000000000000000000005f52601160045260245ffd5b5f613240826126e8565b91507fffffffffffffffffffffffffffffffffffffffffffffffffffffffffffffffff820361327257613271613209565b5b600182019050919050565b5f613287826124df565b613291818561313c565b93506132a18185602086016124f9565b80840191505092915050565b5f6132b8828461327d565b915081905092915050565b5f815490506132d181612dd0565b9050919050565b8181036132e65750506133bb565b6132ef826132c3565b67ffffffffffffffff81111561330857613307612761565b5b6133128254612dd0565b61331d828285612f14565b5f601f83116001811461334a575f8415613338578287015490505b6133428582612f82565b8655506133b4565b601f19841661335887612e00565b965061336386612e00565b5f5b8281101561338a57848901548255600182019150600185019450602081019050613365565b868310156133a757848901546133a3601f891682612f66565b8355505b6001600288020188555050505b5050505050505b565b5f81546133c981612dd0565b6133d381866124e9565b9450600182165f81146133ed576001811461340357613435565b60ff198316865281151560200286019350613435565b61340c85612e00565b5f5b8381101561342d5781548189015260018201915060208101905061340e565b808801955050505b50505092915050565b5f6040820190508181035f83015261345681856133bd565b9050818103602083015261346a81846133bd565b90509392505050565b5f61347d826126e8565b9150613488836126e8565b92508282019050808211156134a05761349f613209565b5b9291505056fea2646970667358221220668fed6bc42a3e454910a3035e4b235289e540a7e4834ad6bca1da8b3b87f82064736f6c63430008140033",
  "linkReferences": {},
  "deployedLinkReferences": {}
}