{"_format":"hh-sol-artifact-1","contractName":"CertificateContract","sourceName":"contracts/CertificateContract.sol","abi":[{"inputs":[],"stateMutability":"nonpayable","type":"constructor"},{"anonymous":false,"inputs":[{"indexed":false,"internalType":"string","name":"certificateHash","type":"string"},{"indexed":true,"internalType":"address","name":"issuedBy","type":"address"},{"indexed":true,"internalType":"address","name":"issuedTo","type":"address"}],"name":"CertificateIssued","type":"event"},{"anonymous":false,"inputs":[{"indexed":false,"internalType":"string","name":"instructorName","type":"string"},{"indexed":false,"internalType":"string","name":"programName","type":"string"},{"indexed":true,"internalType":"address","name":"instructorAddress","type":"address"},{"indexed":true,"internalType":"uint256","name":"programId","type":"uint256"}],"name":"InstructorAddedToProgram","type":"event"},{"anonymous":false,"inputs":[{"indexed":false,"internalType":"string","name":"name","type":"string"},{"indexed":false,"internalType":"string","name":"email","type":"string"},{"indexed":true,"internalType":"address","name":"instructorAddress","type":"address"}],"name":"InstructorCreated","type":"event"},{"anonymous":false,"inputs":[{"indexed":false,"internalType":"string","name":"instructorName","type":"string"},{"indexed":false,"internalType":"string","name":"programName","type":"string"},{"indexed":true,"internalType":"address","name":"instructorAddress","type":"address"},{"indexed":true,"internalType":"uint256","name":"programId","type":"uint256"}],"name":"InstructorRemovedFromProgram","type":"event"},{"anonymous":false,"inputs":[{"indexed":false,"internalType":"string","name":"name","type":"string"},{"indexed":false,"internalType":"string","name":"email","type":"string"},{"indexed":true,"internalType":"address","name":"organizationAddress","type":"address"}],"name":"OrganizationCreated","type":"event"},{"anonymous":false,"inputs":[{"indexed":false,"internalType":"string","name":"name","type":"string"},{"indexed":true,"internalType":"address","name":"organizationAddress","type":"address"},{"indexed":true,"internalType":"uint256","name":"programId","type":"uint256"}],"name":"ProgramCreated","type":"event"},{"anonymous":false,"inputs":[{"indexed":false,"internalType":"string","name":"studentName","type":"string"},{"indexed":false,"internalType":"string","name":"programName","type":"string"},{"indexed":true,"internalType":"address","name":"studentAddress","type":"address"},{"indexed":true,"internalType":"uint256","name":"programId","type":"uint256"}],"name":"StudentAddedToProgram","type":"event"},{"anonymous":false,"inputs":[{"indexed":false,"internalType":"string","name":"name","type":"string"},{"indexed":false,"internalType":"string","name":"email","type":"string"},{"indexed":true,"internalType":"address","name":"studentAddress","type":"address"}],"name":"StudentCreated","type":"event"},{"anonymous":false,"inputs":[{"indexed":false,"internalType":"string","name":"studentName","type":"string"},{"indexed":false,"internalType":"string","name":"programName","type":"string"},{"indexed":true,"internalType":"address","name":"studentAddress","type":"address"},{"indexed":true,"internalType":"uint256","name":"programId","type":"uint256"}],"name":"StudentRemovedFromProgram","type":"event"},{"inputs":[{"internalType":"address","name":"_instructor","type":"address"},{"internalType":"uint256","name":"_programId","type":"uint256"}],"name":"addInstructorToProgram","outputs":[],"stateMutability":"nonpayable","type":"function"},{"inputs":[{"internalType":"address","name":"_student","type":"address"},{"internalType":"uint256","name":"_programId","type":"uint256"}],"name":"addStudentToProgram","outputs":[],"stateMutability":"nonpayable","type":"function"},{"inputs":[{"internalType":"address","name":"","type":"address"},{"internalType":"uint256","name":"","type":"uint256"}],"name":"certificatesByStudent","outputs":[{"internalType":"string","name":"certificateHash","type":"string"},{"internalType":"address","name":"issuedBy","type":"address"},{"internalType":"address","name":"issuedTo","type":"address"}],"stateMutability":"view","type":"function"},{"inputs":[{"internalType":"string","name":"_name","type":"string"},{"internalType":"string","name":"_email","type":"string"}],"name":"createInstructor","outputs":[],"stateMutability":"nonpayable","type":"function"},{"inputs":[{"internalType":"string","name":"_name","type":"string"},{"internalType":"string","name":"_email","type":"string"}],"name":"createOrganization","outputs":[],"stateMutability":"nonpayable","type":"function"},{"inputs":[{"internalType":"string","name":"_name","type":"string"}],"name":"createProgram","outputs":[],"stateMutability":"nonpayable","type":"function"},{"inputs":[{"internalType":"string","name":"_name","type":"string"},{"internalType":"string","name":"_email","type":"string"}],"name":"createStudent","outputs":[],"stateMutability":"nonpayable","type":"function"},{"inputs":[],"name":"getMyCertificates","outputs":[{"components":[{"internalType":"string","name":"certificateHash","type":"string"},{"internalType":"address","name":"issuedBy","type":"address"},{"internalType":"address","name":"issuedTo","type":"address"}],"internalType":"struct CertificateContract.Certificate[]","name":"","type":"tuple[]"}],"stateMutability":"view","type":"function"},{"inputs":[],"name":"getMyPrograms","outputs":[{"components":[{"internalType":"string","name":"name","type":"string"}],"internalType":"struct CertificateContract.Program[]","name":"","type":"tuple[]"}],"stateMutability":"view","type":"function"},{"inputs":[{"internalType":"uint256","name":"_programId","type":"uint256"}],"name":"getStudentsInProgram","outputs":[{"components":[{"internalType":"string","name":"name","type":"string"},{"internalType":"string","name":"email","type":"string"}],"internalType":"struct CertificateContract.Student[]","name":"","type":"tuple[]"}],"stateMutability":"view","type":"function"},{"inputs":[],"name":"instructorCount","outputs":[{"internalType":"uint256","name":"","type":"uint256"}],"stateMutability":"view","type":"function"},{"inputs":[{"internalType":"address","name":"","type":"address"}],"name":"instructors","outputs":[{"internalType":"string","name":"name","type":"string"},{"internalType":"string","name":"email","type":"string"}],"stateMutability":"view","type":"function"},{"inputs":[{"internalType":"uint256","name":"","type":"uint256"},{"internalType":"uint256","name":"","type":"uint256"}],"name":"instructorsByProgram","outputs":[{"internalType":"string","name":"name","type":"string"},{"internalType":"string","name":"email","type":"string"}],"stateMutability":"view","type":"function"},{"inputs":[{"internalType":"string","name":"_certificateHash","type":"string"},{"internalType":"address","name":"_issuedTo","type":"address"}],"name":"issueCertificate","outputs":[],"stateMutability":"nonpayable","type":"function"},{"inputs":[],"name":"organizationCount","outputs":[{"internalType":"uint256","name":"","type":"uint256"}],"stateMutability":"view","type":"function"},{"inputs":[{"internalType":"address","name":"","type":"address"}],"name":"organizations","outputs":[{"internalType":"string","name":"name","type":"string"},{"internalType":"string","name":"email","type":"string"}],"stateMutability":"view","type":"function"},{"inputs":[],"name":"owner","outputs":[{"internalType":"address","name":"","type":"address"}],"stateMutability":"view","type":"function"},{"inputs":[],"name":"programCount","outputs":[{"internalType":"uint256","name":"","type":"uint256"}],"stateMutability":"view","type":"function"},{"inputs":[{"internalType":"uint256","name":"","type":"uint256"}],"name":"programs","outputs":[{"internalType":"string","name":"name","type":"string"}],"stateMutability":"view","type":"function"},{"inputs":[{"internalType":"address","name":"","type":"address"},{"internalType":"uint256","name":"","type":"uint256"}],"name":"programsByInstructor","outputs":[{"internalType":"string","name":"name","type":"string"}],"stateMutability":"view","type":"function"},{"inputs":[{"internalType":"address","name":"","type":"address"},{"internalType":"uint256","name":"","type":"uint256"}],"name":"programsByOrganization","outputs":[{"internalType":"string","name":"name","type":"string"}],"stateMutability":"view","type":"function"},{"inputs":[{"internalType":"address","name":"_instructor","type":"address"},{"internalType":"uint256","name":"_programId","type":"uint256"}],"name":"removeInstructorFromProgram","outputs":[],"stateMutability":"nonpayable","type":"function"},{"inputs":[{"internalType":"address","name":"_student","type":"address"},{"internalType":"uint256","name":"_programId","type":"uint256"}],"name":"removeStudentFromProgram","outputs":[],"stateMutability":"nonpayable","type":"function"},{"inputs":[],"name":"studentCount","outputs":[{"internalType":"uint256","name":"","type":"uint256"}],"stateMutability":"view","type":"function"},{"inputs":[{"internalType":"address","name":"","type":"address"}],"name":"students","outputs":[{"internalType":"string","name":"name","type":"string"},{"internalType":"string","name":"email","type":"string"}],"stateMutability":"view","type":"function"},{"inputs":[{"internalType":"uint256","name":"","type":"uint256"},{"internalType":"uint256","name":"","type":"uint256"}],"name":"studentsByProgram","outputs":[{"internalType":"string","name":"name","type":"string"},{"internalType":"string","name":"email","type":"string"}],"stateMutability":"view","type":"function"},{"inputs":[{"internalType":"string","name":"_certificateHash","type":"string"},{"internalType":"address","name":"_issuedBy","type":"address"},{"internalType":"address","name":"_issuedTo","type":"address"}],"name":"verifyCertificate","outputs":[{"internalType":"bool","name":"","type":"bool"}],"stateMutability":"view","type":"function"}],"bytecode":"0x6080604052600060015560006002556000600355600060045534801561002457600080fd5b50336000806101000a81548173ffffffffffffffffffffffffffffffffffffffff021916908373ffffffffffffffffffffffffffffffffffffffff160217905550613884806100746000396000f3fe608060405234801561001057600080fd5b50600436106101a95760003560e01c80638da5cb5b116100f9578063a6c807a911610097578063e581f9ee11610071578063e581f9ee1461051f578063f1c621041461053d578063fdcaed6d1461055b578063ffc8fa7a14610577576101a9565b8063a6c807a91461048e578063b0ed60db146104bf578063c109e849146104ef576101a9565b80639e5be204116100d35780639e5be204146104075780639f796634146104235780639ff698af14610441578063a411ef2014610472576101a9565b80638da5cb5b1461039b5780638dae48f9146103b957806392db2816146103d7576101a9565b80635aa0bac6116101665780637c573169116101405780637c573169146103155780637c91772a146103335780637f9a0b9e1461034f5780638afaa0c41461037f576101a9565b80635aa0bac6146102975780635ab6f738146102c957806367d4ddf6146102f9576101a9565b80632a47d91c146101ae578063314901f4146101df5780633fc8352a146101fd5780634a99fbfe1461022e578063593fdeae1461024a5780635a1f740614610266575b600080fd5b6101c860048036038101906101c391906127d3565b610593565b6040516101d6929190612890565b60405180910390f35b6101e76106c7565b6040516101f491906129fd565b60405180910390f35b61021760048036038101906102129190612a55565b6107f1565b604051610225929190612890565b60405180910390f35b61024860048036038101906102439190612bca565b610942565b005b610264600480360381019061025f9190612c42565b610a34565b005b610280600480360381019061027b91906127d3565b610c17565b60405161028e929190612890565b60405180910390f35b6102b160048036038101906102ac9190612c42565b610d4b565b6040516102c093929190612c91565b60405180910390f35b6102e360048036038101906102de9190612ccf565b610e5a565b6040516102f09190612e02565b60405180910390f35b610313600480360381019061030e9190612e24565b6110dc565b005b61031d61132b565b60405161032a9190612fa1565b60405180910390f35b61034d60048036038101906103489190612bca565b611505565b005b61036960048036038101906103649190612c42565b6115f8565b6040516103769190612fc3565b60405180910390f35b61039960048036038101906103949190612fe5565b6116b7565b005b6103a361182f565b6040516103b0919061302e565b60405180910390f35b6103c1611853565b6040516103ce9190613058565b60405180910390f35b6103f160048036038101906103ec9190612ccf565b611859565b6040516103fe9190612fc3565b60405180910390f35b610421600480360381019061041c9190612c42565b6118ff565b005b61042b611b4b565b6040516104389190613058565b60405180910390f35b61045b60048036038101906104569190612a55565b611b51565b604051610469929190612890565b60405180910390f35b61048c60048036038101906104879190612bca565b611ca2565b005b6104a860048036038101906104a391906127d3565b611d94565b6040516104b6929190612890565b60405180910390f35b6104d960048036038101906104d49190613073565b611ec8565b6040516104e691906130fd565b60405180910390f35b61050960048036038101906105049190612c42565b6121f4565b6040516105169190612fc3565b60405180910390f35b6105276122b3565b6040516105349190613058565b60405180910390f35b6105456122b9565b6040516105529190613058565b60405180910390f35b61057560048036038101906105709190612c42565b6122bf565b005b610591600480360381019061058c9190612c42565b61250b565b005b60076020528060005260406000206000915090508060000180546105b690613147565b80601f01602080910402602001604051908101604052809291908181526020018280546105e290613147565b801561062f5780601f106106045761010080835404028352916020019161062f565b820191906000526020600020905b81548152906001019060200180831161061257829003601f168201915b50505050509080600101805461064490613147565b80601f016020809104026020016040519081016040528092919081815260200182805461067090613147565b80156106bd5780601f10610692576101008083540402835291602001916106bd565b820191906000526020600020905b8154815290600101906020018083116106a057829003601f168201915b5050505050905082565b6060600a60003373ffffffffffffffffffffffffffffffffffffffff1673ffffffffffffffffffffffffffffffffffffffff168152602001908152602001600020805480602002602001604051908101604052809291908181526020016000905b828210156107e85783829060005260206000200160405180602001604052908160008201805461075790613147565b80601f016020809104026020016040519081016040528092919081815260200182805461078390613147565b80156107d05780601f106107a5576101008083540402835291602001916107d0565b820191906000526020600020905b8154815290600101906020018083116107b357829003601f168201915b50505050508152505081526020019060010190610728565b50505050905090565b600d602052816000526040600020818154811061080d57600080fd5b90600052602060002090600202016000915091505080600001805461083190613147565b80601f016020809104026020016040519081016040528092919081815260200182805461085d90613147565b80156108aa5780601f1061087f576101008083540402835291602001916108aa565b820191906000526020600020905b81548152906001019060200180831161088d57829003601f168201915b5050505050908060010180546108bf90613147565b80601f01602080910402602001604051908101604052809291908181526020018280546108eb90613147565b80156109385780601f1061090d57610100808354040283529160200191610938565b820191906000526020600020905b81548152906001019060200180831161091b57829003601f168201915b5050505050905082565b61095860016004546126ee90919063ffffffff16565b600481905550604051806040016040528083815260200182815250600760003373ffffffffffffffffffffffffffffffffffffffff1673ffffffffffffffffffffffffffffffffffffffff16815260200190815260200160002060008201518160000190816109c79190613324565b5060208201518160010190816109dd9190613324565b509050503373ffffffffffffffffffffffffffffffffffffffff167e8e44de163bf30e94a254b4534b229364292069cca92fe58f70922f82ef1ba98383604051610a28929190612890565b60405180910390a25050565b6000600560003373ffffffffffffffffffffffffffffffffffffffff1673ffffffffffffffffffffffffffffffffffffffff1681526020019081526020016000206000018054610a8390613147565b905003610ac5576040517f08c379a0000000000000000000000000000000000000000000000000000000008152600401610abc90613442565b60405180910390fd5b600d6000828152602001908152602001600020600760008473ffffffffffffffffffffffffffffffffffffffff1673ffffffffffffffffffffffffffffffffffffffff168152602001908152602001600020908060018154018082558091505060019003906000526020600020906002020160009091909190915060008201816000019081610b549190613478565b5060018201816001019081610b699190613478565b505050808273ffffffffffffffffffffffffffffffffffffffff167f46176236e9cba16c2720f7b0ac3a885d0b88643e999e93be39dc78ba76d0d9c4600760008673ffffffffffffffffffffffffffffffffffffffff1673ffffffffffffffffffffffffffffffffffffffff16815260200190815260200160002060000160086000868152602001908152602001600020600001604051610c0b9291906135e4565b60405180910390a35050565b6005602052806000526040600020600091509050806000018054610c3a90613147565b80601f0160208091040260200160405190810160405280929190818152602001828054610c6690613147565b8015610cb35780601f10610c8857610100808354040283529160200191610cb3565b820191906000526020600020905b815481529060010190602001808311610c9657829003601f168201915b505050505090806001018054610cc890613147565b80601f0160208091040260200160405190810160405280929190818152602001828054610cf490613147565b8015610d415780601f10610d1657610100808354040283529160200191610d41565b820191906000526020600020905b815481529060010190602001808311610d2457829003601f168201915b5050505050905082565b60096020528160005260406000208181548110610d6757600080fd5b906000526020600020906003020160009150915050806000018054610d8b90613147565b80601f0160208091040260200160405190810160405280929190818152602001828054610db790613147565b8015610e045780601f10610dd957610100808354040283529160200191610e04565b820191906000526020600020905b815481529060010190602001808311610de757829003601f168201915b5050505050908060010160009054906101000a900473ffffffffffffffffffffffffffffffffffffffff16908060020160009054906101000a900473ffffffffffffffffffffffffffffffffffffffff16905083565b60606000600560003373ffffffffffffffffffffffffffffffffffffffff1673ffffffffffffffffffffffffffffffffffffffff1681526020019081526020016000206000018054610eab90613147565b9050141580610f0957506000600760003373ffffffffffffffffffffffffffffffffffffffff1673ffffffffffffffffffffffffffffffffffffffff1681526020019081526020016000206000018054610f0490613147565b905014155b610f48576040517f08c379a0000000000000000000000000000000000000000000000000000000008152600401610f3f90613667565b60405180910390fd5b600b6000838152602001908152602001600020805480602002602001604051908101604052809291908181526020016000905b828210156110d15783829060005260206000209060020201604051806040016040529081600082018054610fae90613147565b80601f0160208091040260200160405190810160405280929190818152602001828054610fda90613147565b80156110275780601f10610ffc57610100808354040283529160200191611027565b820191906000526020600020905b81548152906001019060200180831161100a57829003601f168201915b5050505050815260200160018201805461104090613147565b80601f016020809104026020016040519081016040528092919081815260200182805461106c90613147565b80156110b95780601f1061108e576101008083540402835291602001916110b9565b820191906000526020600020905b81548152906001019060200180831161109c57829003601f168201915b50505050508152505081526020019060010190610f7b565b505050509050919050565b6000600560003373ffffffffffffffffffffffffffffffffffffffff1673ffffffffffffffffffffffffffffffffffffffff168152602001908152602001600020600001805461112b90613147565b90500361116d576040517f08c379a000000000000000000000000000000000000000000000000000000000815260040161116490613442565b60405180910390fd5b600960008273ffffffffffffffffffffffffffffffffffffffff1673ffffffffffffffffffffffffffffffffffffffff16815260200190815260200160002060405180606001604052808481526020013373ffffffffffffffffffffffffffffffffffffffff1681526020018373ffffffffffffffffffffffffffffffffffffffff16815250908060018154018082558091505060019003906000526020600020906003020160009091909190915060008201518160000190816112319190613324565b5060208201518160010160006101000a81548173ffffffffffffffffffffffffffffffffffffffff021916908373ffffffffffffffffffffffffffffffffffffffff16021790555060408201518160020160006101000a81548173ffffffffffffffffffffffffffffffffffffffff021916908373ffffffffffffffffffffffffffffffffffffffff16021790555050508073ffffffffffffffffffffffffffffffffffffffff163373ffffffffffffffffffffffffffffffffffffffff167fc2c609b4c31b0c752f6a8691bfa92d3bb7db975421b76c586f8d1963a44c28f78460405161131f9190612fc3565b60405180910390a35050565b6060600960003373ffffffffffffffffffffffffffffffffffffffff1673ffffffffffffffffffffffffffffffffffffffff168152602001908152602001600020805480602002602001604051908101604052809291908181526020016000905b828210156114fc57838290600052602060002090600302016040518060600160405290816000820180546113bf90613147565b80601f01602080910402602001604051908101604052809291908181526020018280546113eb90613147565b80156114385780601f1061140d57610100808354040283529160200191611438565b820191906000526020600020905b81548152906001019060200180831161141b57829003601f168201915b505050505081526020016001820160009054906101000a900473ffffffffffffffffffffffffffffffffffffffff1673ffffffffffffffffffffffffffffffffffffffff1673ffffffffffffffffffffffffffffffffffffffff1681526020016002820160009054906101000a900473ffffffffffffffffffffffffffffffffffffffff1673ffffffffffffffffffffffffffffffffffffffff1673ffffffffffffffffffffffffffffffffffffffff16815250508152602001906001019061138c565b50505050905090565b61151b60016003546126ee90919063ffffffff16565b600381905550604051806040016040528083815260200182815250600660003373ffffffffffffffffffffffffffffffffffffffff1673ffffffffffffffffffffffffffffffffffffffff168152602001908152602001600020600082015181600001908161158a9190613324565b5060208201518160010190816115a09190613324565b509050503373ffffffffffffffffffffffffffffffffffffffff167f6bb189734e9cd805e21805be4acc1704c6f805d7617d8d714e159b04b1ac38e783836040516115ec929190612890565b60405180910390a25050565b600a602052816000526040600020818154811061161457600080fd5b906000526020600020016000915091505080600001805461163490613147565b80601f016020809104026020016040519081016040528092919081815260200182805461166090613147565b80156116ad5780601f10611682576101008083540402835291602001916116ad565b820191906000526020600020905b81548152906001019060200180831161169057829003601f168201915b5050505050905081565b6000600560003373ffffffffffffffffffffffffffffffffffffffff1673ffffffffffffffffffffffffffffffffffffffff168152602001908152602001600020600001805461170690613147565b905003611748576040517f08c379a000000000000000000000000000000000000000000000000000000000815260040161173f90613442565b60405180910390fd5b61175e60016002546126ee90919063ffffffff16565b600281905550604051806020016040528082815250600860006002548152602001908152602001600020600082015181600001908161179d9190613324565b50905050600a60003373ffffffffffffffffffffffffffffffffffffffff1673ffffffffffffffffffffffffffffffffffffffff1681526020019081526020016000206040518060200160405280838152509080600181540180825580915050600190039060005260206000200160009091909190915060008201518160000190816118299190613324565b50505050565b60008054906101000a900473ffffffffffffffffffffffffffffffffffffffff1681565b60045481565b600860205280600052604060002060009150905080600001805461187c90613147565b80601f01602080910402602001604051908101604052809291908181526020018280546118a890613147565b80156118f55780601f106118ca576101008083540402835291602001916118f5565b820191906000526020600020905b8154815290600101906020018083116118d857829003601f168201915b5050505050905081565b6000600560003373ffffffffffffffffffffffffffffffffffffffff1673ffffffffffffffffffffffffffffffffffffffff168152602001908152602001600020600001805461194e90613147565b905003611990576040517f08c379a000000000000000000000000000000000000000000000000000000000815260040161198790613442565b60405180910390fd5b600760008373ffffffffffffffffffffffffffffffffffffffff1673ffffffffffffffffffffffffffffffffffffffff168152602001908152602001600020600080820160006119e09190612704565b6001820160006119f09190612704565b505060005b600d600083815260200190815260200160002080549050811015611b4657600760008473ffffffffffffffffffffffffffffffffffffffff1673ffffffffffffffffffffffffffffffffffffffff168152602001908152602001600020600001604051602001611a659190613715565b60405160208183030381529060405280519060200120600d60008481526020019081526020016000208281548110611aa057611a9f61372c565b5b9060005260206000209060020201600001604051602001611ac19190613715565b6040516020818303038152906040528051906020012003611b3357600d60008381526020019081526020016000208181548110611b0157611b0061372c565b5b906000526020600020906002020160008082016000611b209190612704565b600182016000611b309190612704565b50505b8080611b3e9061378a565b9150506119f5565b505050565b60025481565b600b6020528160005260406000208181548110611b6d57600080fd5b906000526020600020906002020160009150915050806000018054611b9190613147565b80601f0160208091040260200160405190810160405280929190818152602001828054611bbd90613147565b8015611c0a5780601f10611bdf57610100808354040283529160200191611c0a565b820191906000526020600020905b815481529060010190602001808311611bed57829003601f168201915b505050505090806001018054611c1f90613147565b80601f0160208091040260200160405190810160405280929190818152602001828054611c4b90613147565b8015611c985780601f10611c6d57610100808354040283529160200191611c98565b820191906000526020600020905b815481529060010190602001808311611c7b57829003601f168201915b5050505050905082565b611cb7600180546126ee90919063ffffffff16565b600181905550604051806040016040528083815260200182815250600560003373ffffffffffffffffffffffffffffffffffffffff1673ffffffffffffffffffffffffffffffffffffffff1681526020019081526020016000206000820151816000019081611d269190613324565b506020820151816001019081611d3c9190613324565b509050503373ffffffffffffffffffffffffffffffffffffffff167ff43468d632970351cebf716e29ad6e7b78918f4c6824ba9574cf73e6edac78148383604051611d88929190612890565b60405180910390a25050565b6006602052806000526040600020600091509050806000018054611db790613147565b80601f0160208091040260200160405190810160405280929190818152602001828054611de390613147565b8015611e305780601f10611e0557610100808354040283529160200191611e30565b820191906000526020600020905b815481529060010190602001808311611e1357829003601f168201915b505050505090806001018054611e4590613147565b80601f0160208091040260200160405190810160405280929190818152602001828054611e7190613147565b8015611ebe5780601f10611e9357610100808354040283529160200191611ebe565b820191906000526020600020905b815481529060010190602001808311611ea157829003601f168201915b5050505050905082565b600080600960008473ffffffffffffffffffffffffffffffffffffffff1673ffffffffffffffffffffffffffffffffffffffff168152602001908152602001600020805480602002602001604051908101604052809291908181526020016000905b8282101561209a5783829060005260206000209060030201604051806060016040529081600082018054611f5d90613147565b80601f0160208091040260200160405190810160405280929190818152602001828054611f8990613147565b8015611fd65780601f10611fab57610100808354040283529160200191611fd6565b820191906000526020600020905b815481529060010190602001808311611fb957829003601f168201915b505050505081526020016001820160009054906101000a900473ffffffffffffffffffffffffffffffffffffffff1673ffffffffffffffffffffffffffffffffffffffff1673ffffffffffffffffffffffffffffffffffffffff1681526020016002820160009054906101000a900473ffffffffffffffffffffffffffffffffffffffff1673ffffffffffffffffffffffffffffffffffffffff1673ffffffffffffffffffffffffffffffffffffffff168152505081526020019060010190611f2a565b50505050905060005b81518110156121e657856040516020016120bd9190613803565b604051602081830303815290604052805190602001208282815181106120e6576120e561372c565b5b6020026020010151600001516040516020016121029190613803565b6040516020818303038152906040528051906020012014801561216e57508473ffffffffffffffffffffffffffffffffffffffff1682828151811061214a5761214961372c565b5b60200260200101516020015173ffffffffffffffffffffffffffffffffffffffff16145b80156121c357508373ffffffffffffffffffffffffffffffffffffffff1682828151811061219f5761219e61372c565b5b60200260200101516040015173ffffffffffffffffffffffffffffffffffffffff16145b156121d3576001925050506121ed565b80806121de9061378a565b9150506120a3565b5060009150505b9392505050565b600c602052816000526040600020818154811061221057600080fd5b906000526020600020016000915091505080600001805461223090613147565b80601f016020809104026020016040519081016040528092919081815260200182805461225c90613147565b80156122a95780601f1061227e576101008083540402835291602001916122a9565b820191906000526020600020905b81548152906001019060200180831161228c57829003601f168201915b5050505050905081565b60035481565b60015481565b6000600560003373ffffffffffffffffffffffffffffffffffffffff1673ffffffffffffffffffffffffffffffffffffffff168152602001908152602001600020600001805461230e90613147565b905003612350576040517f08c379a000000000000000000000000000000000000000000000000000000000815260040161234790613442565b60405180910390fd5b600660008373ffffffffffffffffffffffffffffffffffffffff1673ffffffffffffffffffffffffffffffffffffffff168152602001908152602001600020600080820160006123a09190612704565b6001820160006123b09190612704565b505060005b600b60008381526020019081526020016000208054905081101561250657600660008473ffffffffffffffffffffffffffffffffffffffff1673ffffffffffffffffffffffffffffffffffffffff1681526020019081526020016000206000016040516020016124259190613715565b60405160208183030381529060405280519060200120600b600084815260200190815260200160002082815481106124605761245f61372c565b5b90600052602060002090600202016000016040516020016124819190613715565b60405160208183030381529060405280519060200120036124f357600b600083815260200190815260200160002081815481106124c1576124c061372c565b5b9060005260206000209060020201600080820160006124e09190612704565b6001820160006124f09190612704565b50505b80806124fe9061378a565b9150506123b5565b505050565b6000600560003373ffffffffffffffffffffffffffffffffffffffff1673ffffffffffffffffffffffffffffffffffffffff168152602001908152602001600020600001805461255a90613147565b90500361259c576040517f08c379a000000000000000000000000000000000000000000000000000000000815260040161259390613442565b60405180910390fd5b600b6000828152602001908152602001600020600660008473ffffffffffffffffffffffffffffffffffffffff1673ffffffffffffffffffffffffffffffffffffffff16815260200190815260200160002090806001815401808255809150506001900390600052602060002090600202016000909190919091506000820181600001908161262b9190613478565b50600182018160010190816126409190613478565b505050808273ffffffffffffffffffffffffffffffffffffffff167f5062a39a1084190954165004c06b41ba85e025b8bc13b72d14cca26965059a33600660008673ffffffffffffffffffffffffffffffffffffffff1673ffffffffffffffffffffffffffffffffffffffff168152602001908152602001600020600001600860008681526020019081526020016000206000016040516126e29291906135e4565b60405180910390a35050565b600081836126fc919061381a565b905092915050565b50805461271090613147565b6000825580601f106127225750612741565b601f0160209004906000526020600020908101906127409190612744565b5b50565b5b8082111561275d576000816000905550600101612745565b5090565b6000604051905090565b600080fd5b600080fd5b600073ffffffffffffffffffffffffffffffffffffffff82169050919050565b60006127a082612775565b9050919050565b6127b081612795565b81146127bb57600080fd5b50565b6000813590506127cd816127a7565b92915050565b6000602082840312156127e9576127e861276b565b5b60006127f7848285016127be565b91505092915050565b600081519050919050565b600082825260208201905092915050565b60005b8381101561283a57808201518184015260208101905061281f565b60008484015250505050565b6000601f19601f8301169050919050565b600061286282612800565b61286c818561280b565b935061287c81856020860161281c565b61288581612846565b840191505092915050565b600060408201905081810360008301526128aa8185612857565b905081810360208301526128be8184612857565b90509392505050565b600081519050919050565b600082825260208201905092915050565b6000819050602082019050919050565b600082825260208201905092915050565b600061290f82612800565b61291981856128f3565b935061292981856020860161281c565b61293281612846565b840191505092915050565b6000602083016000830151848203600086015261295a8282612904565b9150508091505092915050565b6000612973838361293d565b905092915050565b6000602082019050919050565b6000612993826128c7565b61299d81856128d2565b9350836020820285016129af856128e3565b8060005b858110156129eb57848403895281516129cc8582612967565b94506129d78361297b565b925060208a019950506001810190506129b3565b50829750879550505050505092915050565b60006020820190508181036000830152612a178184612988565b905092915050565b6000819050919050565b612a3281612a1f565b8114612a3d57600080fd5b50565b600081359050612a4f81612a29565b92915050565b60008060408385031215612a6c57612a6b61276b565b5b6000612a7a85828601612a40565b9250506020612a8b85828601612a40565b9150509250929050565b600080fd5b600080fd5b7f4e487b7100000000000000000000000000000000000000000000000000000000600052604160045260246000fd5b612ad782612846565b810181811067ffffffffffffffff82111715612af657612af5612a9f565b5b80604052505050565b6000612b09612761565b9050612b158282612ace565b919050565b600067ffffffffffffffff821115612b3557612b34612a9f565b5b612b3e82612846565b9050602081019050919050565b82818337600083830152505050565b6000612b6d612b6884612b1a565b612aff565b905082815260208101848484011115612b8957612b88612a9a565b5b612b94848285612b4b565b509392505050565b600082601f830112612bb157612bb0612a95565b5b8135612bc1848260208601612b5a565b91505092915050565b60008060408385031215612be157612be061276b565b5b600083013567ffffffffffffffff811115612bff57612bfe612770565b5b612c0b85828601612b9c565b925050602083013567ffffffffffffffff811115612c2c57612c2b612770565b5b612c3885828601612b9c565b9150509250929050565b60008060408385031215612c5957612c5861276b565b5b6000612c67858286016127be565b9250506020612c7885828601612a40565b9150509250929050565b612c8b81612795565b82525050565b60006060820190508181036000830152612cab8186612857565b9050612cba6020830185612c82565b612cc76040830184612c82565b949350505050565b600060208284031215612ce557612ce461276b565b5b6000612cf384828501612a40565b91505092915050565b600081519050919050565b600082825260208201905092915050565b6000819050602082019050919050565b60006040830160008301518482036000860152612d458282612904565b91505060208301518482036020860152612d5f8282612904565b9150508091505092915050565b6000612d788383612d28565b905092915050565b6000602082019050919050565b6000612d9882612cfc565b612da28185612d07565b935083602082028501612db485612d18565b8060005b85811015612df05784840389528151612dd18582612d6c565b9450612ddc83612d80565b925060208a01995050600181019050612db8565b50829750879550505050505092915050565b60006020820190508181036000830152612e1c8184612d8d565b905092915050565b60008060408385031215612e3b57612e3a61276b565b5b600083013567ffffffffffffffff811115612e5957612e58612770565b5b612e6585828601612b9c565b9250506020612e76858286016127be565b9150509250929050565b600081519050919050565b600082825260208201905092915050565b6000819050602082019050919050565b612eb581612795565b82525050565b60006060830160008301518482036000860152612ed88282612904565b9150506020830151612eed6020860182612eac565b506040830151612f006040860182612eac565b508091505092915050565b6000612f178383612ebb565b905092915050565b6000602082019050919050565b6000612f3782612e80565b612f418185612e8b565b935083602082028501612f5385612e9c565b8060005b85811015612f8f5784840389528151612f708582612f0b565b9450612f7b83612f1f565b925060208a01995050600181019050612f57565b50829750879550505050505092915050565b60006020820190508181036000830152612fbb8184612f2c565b905092915050565b60006020820190508181036000830152612fdd8184612857565b905092915050565b600060208284031215612ffb57612ffa61276b565b5b600082013567ffffffffffffffff81111561301957613018612770565b5b61302584828501612b9c565b91505092915050565b60006020820190506130436000830184612c82565b92915050565b61305281612a1f565b82525050565b600060208201905061306d6000830184613049565b92915050565b60008060006060848603121561308c5761308b61276b565b5b600084013567ffffffffffffffff8111156130aa576130a9612770565b5b6130b686828701612b9c565b93505060206130c7868287016127be565b92505060406130d8868287016127be565b9150509250925092565b60008115159050919050565b6130f7816130e2565b82525050565b600060208201905061311260008301846130ee565b92915050565b7f4e487b7100000000000000000000000000000000000000000000000000000000600052602260045260246000fd5b6000600282049050600182168061315f57607f821691505b60208210810361317257613171613118565b5b50919050565b60008190508160005260206000209050919050565b60006020601f8301049050919050565b600082821b905092915050565b6000600883026131da7fffffffffffffffffffffffffffffffffffffffffffffffffffffffffffffffff8261319d565b6131e4868361319d565b95508019841693508086168417925050509392505050565b6000819050919050565b600061322161321c61321784612a1f565b6131fc565b612a1f565b9050919050565b6000819050919050565b61323b83613206565b61324f61324782613228565b8484546131aa565b825550505050565b600090565b613264613257565b61326f818484613232565b505050565b5b818110156132935761328860008261325c565b600181019050613275565b5050565b601f8211156132d8576132a981613178565b6132b28461318d565b810160208510156132c1578190505b6132d56132cd8561318d565b830182613274565b50505b505050565b600082821c905092915050565b60006132fb600019846008026132dd565b1980831691505092915050565b600061331483836132ea565b9150826002028217905092915050565b61332d82612800565b67ffffffffffffffff81111561334657613345612a9f565b5b6133508254613147565b61335b828285613297565b600060209050601f83116001811461338e576000841561337c578287015190505b6133868582613308565b8655506133ee565b601f19841661339c86613178565b60005b828110156133c45784890151825560018201915060208501945060208101905061339f565b868310156133e157848901516133dd601f8916826132ea565b8355505b6001600288020188555050505b505050505050565b7f4e4f545f4f5247414e495a455200000000000000000000000000000000000000600082015250565b600061342c600d8361280b565b9150613437826133f6565b602082019050919050565b6000602082019050818103600083015261345b8161341f565b9050919050565b60008154905061347181613147565b9050919050565b81810361348657505061355e565b61348f82613462565b67ffffffffffffffff8111156134a8576134a7612a9f565b5b6134b28254613147565b6134bd828285613297565b6000601f8311600181146134ec57600084156134da578287015490505b6134e48582613308565b865550613557565b601f1984166134fa87613178565b965061350586613178565b60005b8281101561352d57848901548255600182019150600185019450602081019050613508565b8683101561354a5784890154613546601f8916826132ea565b8355505b6001600288020188555050505b5050505050505b565b6000815461356d81613147565b613577818661280b565b9450600182166000811461359257600181146135a8576135db565b60ff1983168652811515602002860193506135db565b6135b185613178565b60005b838110156135d3578154818901526001820191506020810190506135b4565b808801955050505b50505092915050565b600060408201905081810360008301526135fe8185613560565b905081810360208301526136128184613560565b90509392505050565b7f4e4f545f4f5247414e495a45525f4f525f494e5354525543544f520000000000600082015250565b6000613651601b8361280b565b915061365c8261361b565b602082019050919050565b6000602082019050818103600083015261368081613644565b9050919050565b600081905092915050565b6000815461369f81613147565b6136a98186613687565b945060018216600081146136c457600181146136d95761370c565b60ff198316865281151582028601935061370c565b6136e285613178565b60005b83811015613704578154818901526001820191506020810190506136e5565b838801955050505b50505092915050565b60006137218284613692565b915081905092915050565b7f4e487b7100000000000000000000000000000000000000000000000000000000600052603260045260246000fd5b7f4e487b7100000000000000000000000000000000000000000000000000000000600052601160045260246000fd5b600061379582612a1f565b91507fffffffffffffffffffffffffffffffffffffffffffffffffffffffffffffffff82036137c7576137c661375b565b5b600182019050919050565b60006137dd82612800565b6137e78185613687565b93506137f781856020860161281c565b80840191505092915050565b600061380f82846137d2565b915081905092915050565b600061382582612a1f565b915061383083612a1f565b92508282019050808211156138485761384761375b565b5b9291505056fea26469706673582212201d7fdb595463680702e5e180999a1723547eabee412d98f3274318208206e84064736f6c63430008120033","linkReferences":{},"deployedLinkReferences":{}}